:040000006F00900CF1
:10000400000000000000000090000020FC1600002A
:10001400A9BDF9F5C803002000000000000000009D
:10002400C803002090000020000000000000000031
:10003400900000200000000090000020000000005C
:1000440090000020900000209000002090000020EC
:10005400900000203C0800209000002000000000D8
:1000640090000020900000209000002090000020CC
:1000740062110000900000209000002090000020F9
:1000840090000020900000209000002090000020AC
:1000940001A073270080218B9387019601CB7327DE
:1000A400008098C398435D9B731007800100010092
:1000B4003717004013070704930670052300D70081
:1000C400930680FA2300D70001000100B716004010
:1000D40003C6B6041376F60DA385C60423000700F1
:1000E400F32600809843218B558F7310078023A03B
:1000F40001960100010013770502630607127327B6
:100104000080218B01CB7327008098C398435D9BAB
:10011400731007800100010037170040130707041C
:10012400930670052300D700930680FA2300D700B6
:1001340001000100B70614007D89558DB7160040F3
:1001440088C6010001000100010023000700F32616
:1001540000809843218B558F7310078023A001964C
:100164000100010073270080218B01CB73270080DD
:1001740098C398435D9B73100780010001003717F3
:10018400004013070704930670052300D700930665
:1001940080FA2300D7000100010001000100B72606
:1001A400004013061005A383C68023000700F3262E
:1001B40000809843218B558F7310078023A00196EC
:1001C4000100010073270080218B01CB732700807D
:1001D40098C398435D9B7310078001000100371793
:1001E400004013070704930670052300D700930605
:1001F40080FA2300D70001000100B716004003C6AF
:10020400B60413660608A385C604230007007327F3
:1002140000809C43A18BD98F7390078023A0019603
:100224000100010082801377050455C773270080FD
:10023400218B01CB7327008098C398435D9B731077
:1002440007800100010037170040130707049306D5
:1002540070052300D700930680FA2300D70001001D
:100264000100B7061400938606047D89558DB716E0
:10027400004088C6010001000100010023000700BE
:10028400F32600809843218B558F7310078023A099
:1002940001960100010073270080218B01CB732795
:1002A400008098C398435D9B731007800100010090
:1002B4003717004013070704930670052300D7007F
:1002C400930680FA2300D70001000100B7260040FE
:1002D40013062005C9BD73270080218B01CB73272A
:1002E400008098C398435D9B731007800100010050
:1002F4003717004013070704930670052300D7003F
:10030400930680FA2300D70001000100B7160040CD
:1003140090461366060C90C649BD411181460146BC
:100324008145114506C67522F3270080A18B93866B
:10033400019681CBF32700809CC29C42DD9B739085
:10034400078001000100B7170040938707041307D3
:1003540070052380E700130780FA2380E70001007B
:100364000100371700400346670413661600230391
:10037400C70423800700732700809C42A18BD98F78
:100384007390078023A0019601000100B24041014F
:100394008280BD473305F50201007D1575FD82801D
:1003A400411122C426C206C6AA84014463179400DC
:1003B400B240224492444101828005041305803EE8
:1003C4004204C13F4180DDB79305000273A045801C
:1003D40082457390153492402242B2424243D24342
:1003E4006244F244025592552256B2564257D257AD
:1003F4006258F25806499649264AB64A464BD64BA5
:10040400664CF64C065D965D265EB65E465FD65F2C
:100414000961730020302303048015472303E4801B
:1004240001002302A480828083076480E3CE07FE58
:1004340023030480828083076480E3CE07FE0345A0
:100444004480828083076480E3CE07FE2302A48075
:100454008280411126C44AC24EC006C61377F50BEA
:10046400AD47AA892E8995446306F7001945653777
:10047400653F8D444E854537FD59FD14639834011D
:10048400B240A244124982494101828013550901B4
:100494001375F50F453F2209CDB7011126CC06CEC1
:1004A400B704080051371545BD37713769372AC677
:1004B400A53F32459377150089EB13651500137535
:1004C400F50FF240E24405618280FD14E9FC014528
:1004D400CDBF397126DC4ADA4ED852D656D45AD218
:1004E4005ED006DE62CE66CCB7E700E07D5783AA15
:1004F400070022C603AA470023A0E71823A2E7188F
:10050400B7170040130770052380E704130780FA28
:100514002380E70483C74704930B75FFB684E2077F
:1005240093FBFB0F8546AA892E8B32893724004022
:10053400E187015763FA76016308D50089461307FA
:1005440000026313D5000157D98F93F7F70FB71C37
:1005540000402382FC0411472303E4801305F00FB9
:100564005D3D094CD135636D7C11B7050700DA9503
:1005740037870700795563F2E504B3879500636E06
:10058400F702370B0800A94733EB65016399F906B5
:1005940089E48144513D26850DA0DA850945553D00
:1005A40005090345F9FFFD14050B693D81C49377E3
:1005B400FB0FFDF7DD3569FD7D55B71700401307C7
:1005C40070052380E704130780FA2380E70403C738
:1005D4004704418B2382E704F250B7E700E023A0ED
:1005E400571123A24711E25432445259C259325A84
:1005F400A25A125B825B724CE24C21618280A54755
:100604006395F90685691309F00FB3069900B3746D
:100614002B01B6941349F9FFB3749900856B3379B0
:100624006901416B9387F9FFB3F7270199E363FCF1
:10063400340193D94900C147E3E637FF99BF0569FF
:10064400C1697D19D9B71305800D63886901130544
:1006540000026384790113051008CA85DD3B353D2A
:1006640021DD4E99B3843441D9B7DA852D45D5338C
:10067400CA94E30099F205097D3BA30FA9FED5BFF7
:100684009387F9FF93F7F70F6361FC0C83C71C048E
:1006940013073008631FF70437070800636BEB0484
:1006A400B3079B00B706100063F5D704334BEB0088
:1006B40089476393F9068980D549E38C04ECDA858C
:1006C4000945413B11090327C9FF91472320E480D1
:1006D40003076480E34E07FE23033481FD17EDFB1B
:1006E400FD14110B81C49377FB0FE9FF7D3371F582
:1006F400E1B5B717004003C75704B70708001377DD
:10070400070219E3B78707007955E378FBEA330753
:100714009B00E3FFE7F855B58547E382F9F2DA85F4
:100724002D45053B9389F4FFE38504E6293393F7CC
:10073400390091EB832604800327090093074900BD
:10074400E39AE6E43E89CE84F1BFB5476396F900A7
:100754001305900BC93135BDB1471305B00AE38BBE
:10076400F9FE99476391F904B7050800B365BB0026
:100774002D45C53181448D4BA1497539639674016A
:10078400832704802320F9008504E39834FF83271A
:10079400048013172B01635507002312F900D5BBFE
:1007A4002322F900FDB39D476399F902814513059E
:1007B400B0044531BD442320090023220900FD591A
:1007C4009D3993F77400CA9703C70700FD14398D48
:1007D4002380A700E39634FF6DBBA1476392F9041D
:1007E4006D398144630D0B008D479304C003630886
:1007F400FB009304000563048B0193044004137508
:10080400C507E30895D819453931393905452131EA
:1008140026850D3909453D314931E31C05D669BBAF
:1008240091476399F90013056006F536F53E130503
:1008340090090DB7E38F09D4F154A9BB197106C20D
:1008440012C416C61AC81ECA22CC26CE2AD02ED24C
:1008540032D436D63AD83EDA42DC46DECAC0CEC2FC
:10086400D2C4D6C6DAC8DECAE2CCE6CEEAD0EED22C
:10087400F2D4F6D6FAD8FEDA938581958841E7005A
:10088400050092402242B2424243D2436244F244BF
:10089400025592552256B2564257D2576258F258D0
:1008A40006499649264AB64A464BD64B664CF64C00
:1008B400065D965D265EB65E465FD65F096173008F
:0408C40020300000E0
:1008C800971100209381818517610020130101F39E
:1008D8001305400097F5FF1F938545721706002002
:1008E800130606FE63FAC5008322050023A05500FF
:1008F80011059105E3EAC5FE17750000130585DFAC
:1009080097050020938505FC1386419563FAC50079
:100918008322050023A0550011059105E3EAC5FED1
:1009280013854195938581B56377B500232005002C
:100938001105E36DB5FEFD42739002BC8D427390C4
:1009480042809302800873A0023097F2FF1F9382BF
:10095800E26A93E232007390523097020000938269
:10096800620373901234730020302A8311C6230067
:10097800B3007D16050365FE82802A8309CA838336
:100988000500230073007D16050385056DFA828036
:100998005D71054586C6A2C4A6C2CAC04EDE52DC39
:1009A80056DA5AD85ED662D466D26AD06ECEEF00D6
:1009B800D0371305800497F0FF1FE780406D15249A
:1009C800B92495241305401F97000020E780009D57
:1009D800992C1305401F97000020E780209CA12434
:1009E8001305401F97000020E780409B2D2CB7255A
:1009F800060093072004116793060040014693857B
:100A080005A80145EF00D015052E631C051AEF5007
:100A18001001EF506059EF5060609307100733657D
:100A2800F50213090000130585FCEF50000C2A8419
:100A3800EF50C05EC5473365F5026115EF50E00A17
:100A4800AA84EF50A05D9709002083A9A9FF970BFE
:100A5800002083AB6BFF170B0020032B2BFF970C99
:100A6800002083AC6CFF170D0020032D2DFF170C01
:100A78000020032CECFD4E8AD2852285EF406020B1
:100A8800CE852A842685EF40C01FAA84EF500059DE
:100A980095473365F5020505EF502005AA8ADE85DE
:100AA8002685EF4000746358A000DA852685EF405C
:100AB800A0696342050437050080E68533453501A2
:100AC800EF40007CEA85AA89EF400068634305008F
:100AD800D6899705002083A5A5F84E85EF4060705C
:100AE8006343A000D6892685DA85EF40E065DA847D
:100AF80063530500DE84E2852285EF40806E970D02
:100B0800002083AD2DF56358A000EE852285EF40C7
:100B1800A063634805049705002083A5E5F337051E
:100B2800008033454501EF40A0759705002083A557
:100B3800E5F22A8AEF4040616353A000568A970580
:100B4800002083A5E5F15285EF40A06963530500B5
:100B5800568A2285EE85EF40205F6E846353050038
:100B680062849705002083A5E5EF4A85EF40601170
:100B78009705002083A545EF2A89EF40E05C634B89
:100B8800050097070020938727EE8C434A85EF409E
:100B980070202A892685EF40506F2AC62285EF40AB
:100BA800D06EB2479706002083A646EC2A874A866D
:100BB8004A85CA85652E054597F0FF1FE780007EA8
:100BC80065BDB640264496440649F259625AD25A3F
:100BD800425BB25B225C925C025DF24D0145616151
:100BE8008280411193050002054506C6EF00806D1D
:100BF800B71700409387870C984309658D45498F3F
:100C080098C3EF00E061B24041016F001044B7178C
:100C180000409387870A98438D4513050010136792
:100C2800071098C3A1ABB71700409387870A98436A
:100C38001347071098C38280411122C406C62A842C
:100C480037050200EF00B00A65FD0545EF00406971
:100C5800370503000505EF0090077DD98145130589
:100C68008007EF00C06C3705070013052508EF0063
:100C7800100675D90145EF00E06A3705070013052E
:100C88004508EF00D00475D92285EF00A069370523
:100C9800070013054508EF00900375D92244B240B8
:100CA800054541016F00E065797106D622D426D248
:100CB80032844AD04ECE52CC56CA5AC85EC6AE8985
:100CC800EF4050702A8A2E89EF00503BEF40707A2F
:100CD800AA84CA855285EF005042EF40907903AB51
:100CE8000900832A04002A89A6855A85EF404059BD
:100CF8002A8ACA855685EF40A058AA855285EF40B2
:100D0800700923A0A900CA855A85EF4060572A892F
:100D1800A6855685EF40C056AA854A85EF3070767D
:100D2800B25008C0225492540259F249624AD24A37
:100D3800424BB24B45618280411122C413844195D4
:100D4800084006C609E913050020EF50A00D08C0A9
:100D58008547630D050813060020814539311305C1
:100D6800E00AD93D1305500DC13D13050008E935CA
:100D78001305800AD1357D45C1351305300D6D3D0C
:100D880001455D3D13050004453D1305D0086D354B
:100D980051455D351305100A45351305800C693D2D
:100DA8001305A00D513D0945413D1305100869354E
:100DB8001305F00851351305900DBD3D1305100FAF
:100DC800A53D1305B00D8D3D13050004B53513057C
:100DD800400A9D351305F00A853513050002A93D23
:100DE8000145993D1305600A813D8147B24022447F
:100DF8003E8541018280011122CC4AC84EC606CEEA
:100E080026CA52C401491304000B938941952285CF
:100E180025350145153541450535814483A7090028
:100E28000545A697CA9703CA07005D293705030039
:100E38000505712D65DD814513058007CD29370529
:100E480007001305250861257DD913050004D92954
:100E580037050700130545089D2D7DD95285D921F1
:100E680037050700130545089D257DD905455129F6
:100E7800850493070008E393F4FA05043E99930761
:100E880000201374F40FE314F9F86244F240D244DA
:100E98004249B249224A0545056117F3FF1F670019
:100EA800E34F93178501E18763C50702FD4763E2B6
:100EB800B70293D7350003A741959E073E952A9719
:100EC800834607009D898547B397B700D58F2300D0
:100ED800F7008280797126D2B304A64093D7F441F3
:100EE80022D44ECE56CA5AC862C4BD8C06D64AD041
:100EF80052CC5EC666C2AA892E84B28A368B9D8C75
:100F0800054C6343C5007D5C33098B409357F94119
:100F180033C927013309F940B30C2041FD5B635302
:100F28006401854B338A24419375F40F13F5F90F47
:100F38008D3F63945901630E640193171A0063C7C8
:100F48009701330A2A41E299E3C0F4FE269A5E9497
:100F5800E1BFB250225492540259F249624AD24A2D
:100F6800424BB24B224C924C456182805971D6CA91
:100F78002AD02ED232D4976500009385E525130632
:100F8800000613850198938A019E3ED6CECED2CC18
:100F9800E2C4E6C2EAC06EDE86D6A2D4A6D2CAD021
:100FA800DAC8DEC636C2BA8D138C0198EFF0FF9C02
:100FB800D68923A0019E23A2019E23A4019E23A6D5
:100FC800019E370D0080970C0020938CAC95170A72
:100FD8000020130AAA9503250C009245A10AEF40A8
:100FE800202A92452320AC0003254C00EF404029DD
:100FF80092452322AC0003258C00EF40602823246F
:10100800AC00025513068C0093054C00713912553B
:10101800EF40503B2A89AE84EF005006EF40704500
:101028002AC6A6854A85EF00500DEF409044032458
:101038000C0083278C00AA843245A2853EC4EF4069
:101048002024A2452A892685EF408023AA854A853F
:10105800EF3030432320AC00A68533458D00EF40A8
:101068002022A245AA843245EF408021AA85268500
:10107800EF3030412324AC00225513064C00E285A2
:10108800253103258C0003294C00310CEF409033A7
:1010980003A60C0083A64C00EF10F051AA84032588
:1010A8004CFF2E84EF40103203260A0083264A00A4
:1010B800EF20704E26C822CA4246D246EF20005C76
:1010C800EF30502E130505046E9523ACAAFE4A8511
:1010D800EF40502F03260A0083264A00EF20B04B2A
:1010E80026CC22CE6246F246EF204059EF30902BB4
:1010F800B25741053E9523AEAAFE9387019EE31C95
:10110800FCEC03A54195130600208145EFF0FF850F
:101118001764000013044406976400009384C40B0A
:101128001C40584021048E070E074E97CE97544313
:101138001043CC438843793BE39484FE2654B6504D
:1011480096540659F649664AD64A464BB64B264C3B
:10115800964C064DF25D656179B941113AC63EC4B7
:1011680013070003B71700402388E702854723AE1B
:10117800F1943247A247410173002030914763E65A
:10118800B706976700009387270B8A05BE95984195
:101198003E97B71700409387470B0287984313453C
:1011A800F5FF698F98C3B71700409387070B9843DB
:1011B800698F98C3B71700409387070A9843798DBA
:1011C80088C3828094431347F5FFF98E94C3B717F9
:1011D80000409387070B9443C98E94C3B717004008
:1011E8009387070A9443758F98C382809843498FE1
:1011F80098C3B71700409387070B98431345F5FF2B
:1012080045BF94431347F5FF758F98C3B717004040
:101218009387070A9843498FC1BF9843498FF5B709
:10122800914763E6B70697670000938727028A0508
:10123800BE9598413E97B71700409387470D0287A0
:1012480098431345F5FF698F98C3B71700409387F4
:10125800070D9843698F98C3B71700409387070C09
:101268009843798D88C3828094431347F5FFF98E9C
:1012780094C3B71700409387070D9443C98E94C34E
:10128800B71700409387070C9443758F98C38280E3
:101298009843498F98C3B71700409387070D984321
:1012A8001345F5FF45BF94431347F5FF758F98C362
:1012B800B71700409387070C9843498FC1BF9843DD
:1012C800498FF5B7B717004003D78701E10709C56C
:1012D8004D8F2390E700828093C5F5FF6D8FD5BFB2
:1012E800B757004003D707809387078011C5136756
:1012F80007102390E7008280C1669386F6EF758F0A
:10130800CDBFB757004003D707809387078011C523
:10131800136707202390E7008280C1669386F6DF73
:10132800758FCDBFB75700402398A78082809377E9
:10133800E50F99C193671500375700402318F780C8
:101348008280B757004003D707809387078011C56D
:10135800A166558F2390E700828046074583DDBF4D
:10136800011156C2B75A004052C43E8A83D70A8038
:101378004EC6BA892167D98F06CE22CC26CA4AC85A
:101388005AC02390FA80AA84014536892E84328B6C
:101398004D3F1D2637480F0013080824335805030E
:1013A80003D74A80C166938606FC758F2392EA802C
:1013B80003D74A8033670701420741832392EA80B3
:1013C80083D70A8041677917F98F2390FA80E167FC
:1013D8009387076A63E4870A060433548502114633
:1013E80013572400931704011377F73FC18301C7EC
:1013F80005667D167D8E05089307F00363F30701E4
:101408003E884208B75700401358080123900783C5
:10141800B7570040239EC7803E8683D70780416721
:10142800130757BF93E717002310F68083570680EA
:10143800F2406244F98F2310F68083570680924A5F
:10144800024BB3E72701C58FC207C1832310F6807B
:10145800B757004003D787802394078003D7878036
:10146800D244424933674701336737014207418312
:101478002394E780B249224A056182808567631C0C
:101488000B028D45B305B402FD17B355B502FD8DAA
:101498002E86C205C18191E1054642064182A167B7
:1014A8005D8E9307C0123308F8029307803E3358C5
:1014B800F8020508B9B765473304E402FD17335647
:1014C80085027D8E4206418291675D8EC9BFB757FE
:1014D800004003D7478183D78781C207D98FE98F17
:1014E800A207A1833385A7401335150082804111D7
:1014F80002C4B757004002C6938707803EC6935779
:10150800C5013EC4224722059357850019CB3247AF
:1015180051073AC63247084341017D8D3335A00053
:1015280082803247C1836107EDB70111B7170040C8
:1015380022CC26CA83D4270203D4070206CEC204CB
:1015480042044AC8C18041803DED93F4F4F7137416
:10155800F49FC2044204C1804180F3270080A18B1C
:101568001387019681CBF32700801CC31C43DD9BA6
:101578007390078001000100B717004093870704A4
:10158800930670052380D700930680FA2380D7003E
:1015980001000100B71600402391960223908602AD
:1015A80023800700F32600801C43A18BD58F7390FE
:1015B800078023A0019601000100F2406244D24452
:1015C800424905618280B7F5070081463000B105C0
:1015D800194597F0FF1FE78080EFA247139727016F
:1015E800E34D07FC93E4040813640440F3270080E8
:1015F800A18B1389019691CBF32700802320F90052
:1016080083270900DD9B7390078001000100B7174D
:10161800004093870704130770052380E70013072A
:1016280080FA2380E70001000100371700402311EA
:1016380097022310870223800700732700808327DF
:101648000900A18BD98F7390078023A00196010010
:101658000100294597F0FF1FE78060D3F32700803A
:10166800A18B91CBF32700802320F9008327090061
:10167800DD9B7390078001000100B7170040938736
:101688000704130770052380E700130780FA2380F7
:10169800E70001000100371700408356070293E670
:1016A80006202310D7022380070073270080832792
:1016B8000900A18BD98FE5BDB7170040984793174C
:1016C800070113770704C18309EBFD8B3755E80140
:1016D800130505803345F5028280216513F7070C51
:1016E80093060004130505D0E318D7FEFD8B374594
:1016F8009C1CF9BF39712AD62ED432D236D0014675
:1017080081468145114506DE16DC1ADA1ED83ACE26
:101718003ECC42CA46C872C676C47AC27EC097F02A
:10172800FF1FE780C0DA73270080218B938701961B
:1017380001CB7327008098C398435D9B7310078083
:1017480001000100371700401307070493067005CE
:101758002300D700930680FA2300D7000100010078
:10176800B71600407D562396C60223000700F326CD
:1017780000809843218B558F7310078023A0019612
:101788000100010073270080218B01CB73270080A3
:1017980098C398435D9B73100780010001003717B9
:1017A800004013070704930670052300D70093062B
:1017B80080FA2300D70001000100B716004003C6D5
:1017C8006604136616002383C604230007007327E4
:1017D80000809C43A18BD98F7390078023A001962A
:1017E8000100010001A037370040B73600403285BC
:1017F80081471307B74021469386864063C3A700F5
:10180800828003480700E30EC8FE3388F5000348CA
:101818000800850723800601D5B7411122C406C6F2
:101828002A84593D2947B307E502B2408D83B3D7CF
:10183800870222449507B3D7E70237370040C2072B
:10184800C1832316F7404101828071654111130558
:10185800052006C6D937B7370040130770F823812B
:10186800E7400D47A381E74013070004A380E74042
:1018780005472387E740B24041018280011122CC0D
:10188800370400801307F4FF3728E93F06CE4ACA19
:101898004EC86D8F1308B81F636AE8006244F240AF
:1018A8005249C249014681460561F9A03706F07FD1
:1018B800636CC7002A86AE86EF205023F24062444C
:1018C8005249C249056182800A8669291377350021
:1018D8008547024592452246B2466308F700094803
:1018E8006308070101EB4928D1BF592CA18DF9B72D
:1018F8006120EDBF3E876924D1B7011122CC37049E
:1019080000801307F4FF3728E93F06CE4ACA4EC8BD
:101918006D8F1308B81F636BE8006244F2405249A8
:10192800C249014701468146056199AC3706F07FF7
:10193800636CC7002A86AE86EF20501BF2406244D3
:101948005249C249056182800A8629299377350060
:101958000547024592452246B2466388E700094892
:101968006387070181EB292CD1BF3920C1BF092C1E
:10197800A18DE9B71120EDBF55716ECF939D15006C
:10198800CAC152DD56DB66D36AD1B68C86C7A2C5FA
:10199800A6C34EDF5AD95ED762D593DD1D00B706C0
:1019A800403EAA8A2E8A328D17F9FF1F130989FA39
:1019B80063F8DD003AC53EC7EF30C01E630D051A57
:1019C8005686D2865685D285EF20E03C97F7FF1FD2
:1019D8009387C7F89043D443AA842E84EF20A03B72
:1019E80097F7FF1F938707F826C422C69043D4436E
:1019F8002A8CAE892245B245EF20E03997F7FF1FC0
:101A08009387C7F69043D443EF10E03A26C822CA1A
:101A18004246D246EF20203897F7FF1F938787F575
:101A28009043D443EF20900C26CC22CE6246F24657
:101A3800EF20603697F7FF1F938747F49043D4430E
:101A4800EF10603726D022D202569256EF20A034EB
:101A580097F7FF1F938707F3D4439043EF201009AC
:101A680026D422D62256B256EF20E03297F7FF1F2F
:101A78009387C7F19043D443EF10E03326D822DA96
:101A88004256D256EF20203126DC22DE6256F2562C
:101A9800EF206030D6C4D2C6EAC0E6C206469646F3
:101AA800AA842E842645B645EF20E02EA6C8A2CAF1
:101AB8002A86AE864645D645EF205003B737D33F32
:101AC80093872733AA8A2E8A63E7B705AACCAECEB6
:101AD800E2D0CED26646F64606559655EF2010015E
:101AE8002A86AE860325090083254900EF201000C9
:101AF800BE402E442AC12EC30A459A459E440E492B
:101B0800FA596A5ADA5A4A5BBA5B2A5C9A5C0A5DE5
:101B1800FA4D69618280B707E93F63E7B705B70700
:101B2800E0FFEE97014B5A84BE8403250900832504
:101B380049002286A686EF20607BE2D4CED62A8B87
:101B48002E892655B6552286A686EF20207AD6D825
:101B5800D2DA4656D656EF206079DADCCADE2A8613
:101B6800AE866655F65559B797F7FF1F938707DE78
:101B78008043C4435DBF03250900832549008DBF09
:101B880015716ED7BA8D13971500A2CDA6CB6AD959
:101B9800B68486CFCAC9CEC7D2C5D6C3DAC15EDF7E
:101BA80062DD66DB32C60583B706403E2A842E8D89
:101BB8006376D700EF20107F6308050E2286EA8639
:101BC8002285EA85EF20201DAA8B2E8B2A86AE86D9
:101BD8002285EA85EF20201C17F7FF1F130787DBF4
:101BE8005EC85ACA10435443AA892E894245D24531
:101BF80017FAFF1F130A8ADCEF20E01917F7FF1FF7
:101C08001307C7D910435443EF20406E5ECC5ACE19
:101C18006246F246EF20201817F7FF1F130787D8F0
:101C280010435443EF1020195ED05AD202569256F0
:101C3800EF20601617F7FF1F130747D710435443C9
:101C4800EF20C06A5ED45AD62256B256EF20A014AE
:101C580017F7FF1F130707D610435443EF10A015BB
:101C68002A8CAE8A63950D062AD82EDA5EDC5ADEF7
:101C78004256D2566255F255EF20E01103260A006B
:101C880083264A00EF208066CEC0CAC20646964622
:101C9800EF206010A2C4EAC62A86AE862645B6455D
:101CA800EF1060112A842E8D22CDFE406E446ACF3B
:101CB8006A45FA45DE444E49BE492E4A9E4A0E4BB5
:101CC800FA5B6A5CDA5C4A5DBA5D2D618280B24774
:101CD80017F7FF1F130787C8A6CABEC81043544387
:101CE8004645D645EF20200BD6CEE2CCCED0CAD280
:101CF8006646F646AA8DAE8C06559655EF20A00985
:101D0800EED4E6D62A86AE862655B655EF20005E76
:101D1800DED8DADA4656D656EF20E007B247A6DE16
:101D2800F656BEDC6656EF20605C4EC14AC30326F9
:101D38000A0083264A00AA8AAE840A459A45EF20FB
:101D4800800556C526C72A86AE862A45BA45EF10AD
:101D5800800622C96ACB2A86AE864A45DA45EF2034
:101D6800E05889B721712326B11993981500B28DCF
:101D78003726E93F232E7119232E111A232C811A95
:101D8800232A911A2328211B2326311B2324411B94
:101D98002322511B2320611B232C8119232A9119EB
:101DA8002328A11993DB18001306B61FAE86636CAF
:101DB800760123A0AD0023A2BD0023A40D0023A615
:101DC8000D00014B9DA837E602402EC01306B697BA
:101DD800636E761997F7FF1F9387C7BE9043D44366
:101DE800635FB00CEF208050B727F93F9387B71F88
:101DF800AA8A2E8A6380FB0817F4FF1F130404BD08
:101E080010405440EF20804E2AC42EC656C852CAED
:101E18002246B246AA8BAE844245D245EF20004DF9
:101E280010405440EF20804C23A4AD0023A07D0136
:101E380023A29D0023A6BD00054B8320C11B0324BC
:101E4800811B8324411B0329011B8329C11A032AEF
:101E5800811A832A411A832BC119032C8119832CD7
:101E68004119032D0119832DC1185A85032B011A15
:101E78003961828097F7FF1F9387C7B59043D44392
:101E880017FBFF1F130B8BB5EF20404603260B00F3
:101E980083264B00AA8A2E8AEF2040452ACC2ECED4
:101EA80056D052D26246F246AA8BAE84025592555B
:101EB800EF20C04303260B0083264B00A5B7EF0095
:101EC800906FB727F93F9387B71FAA892E89638038
:101ED800FB0617FAFF1F130A6AAF03260A008326B8
:101EE8004A00EF00506D2AD42ED64ED84ADAAA847A
:101EF8002E842256B2564255D255EF20203F032653
:101F08000A0083264A007D5BEF00F06AA6C4A2C6D9
:101F1800A6473648AAC8AECA23A0FD0023A20D01D1
:101F2800C647564823A4FD0023A60D0139B797F7E5
:101F3800FF1F938727AA9043D44317FAFF1F130A5A
:101F4800EAA9EF00506703260A0083264A00AA89F7
:101F58002E89EF0050662ADC2EDECEC0CAC2AA84C3
:101F68002E846256F2560645964541BF37263941BA
:101F78001306B61F636E7629C12E97F7FF1F938746
:101F880067A69043D443AA892E84EF10D06097F7B0
:101F9800FF1F9387A79C9043D443EF00D061EF20A5
:101FA80070402A8BEF20704697F7FF1F938787A111
:101FB8009043D4432A89AE84EF10F05DCECCA2CEF4
:101FC8002A86AE866645F645EF20403297F7FF1F12
:101FD8009387C79FCAD0A6D29043D4432A8AAE8992
:101FE80006559655EF10305BAAD4AED6D2D8CEDAC5
:101FF8002656B656AA8A2E844655D655EF20002F67
:10200800FD472A8DAE8C63CD67011307FBFF0A07D6
:10201800975700009387C724BA979C43639D77011D
:1020280093D7450113D84B4193F7F77FB307F8408F
:1020380041476347F70023A0AD0023A2BD007DA858
:1020480097F7FF1F93870799CADCA6DE9043D4430E
:102058006655F65542C4EF1010542AC12EC34EC718
:1020680052C50A469A46AA8A2E842A45BA45EF20BE
:10207800E0272AC92ECB4ECF52CD4A46DA462A8CC3
:10208800AE8B6A45FA45EF20602656D122D30A5610
:102098009A56EF20A02597F7FF1F938727944AD5D4
:1020A80026D79043D4432E84AA89BA552A55EF10CF
:1020B800904E22DB4ED94A56DA56EF2020232EDFE7
:1020C8002ADDE2C16A56FA56AA8A2E84DEC30E4574
:1020D8009E45EF20A021224893D7450193F7F77F2B
:1020E800B308F840930710032A8DAE8C63C917070D
:1020F80023A0AD0023A2BD00628ADE89232CA11192
:10210800232E9111232041132322311303268111F9
:102118008326C1110325011283254112EF20001DDA
:102128002324511323268112032681128326C112E8
:10213800EF20C01B824723A4AD0023A6BD00E3DE29
:1021480007CEB7070080B3CCFC0023A0AD0123A2C3
:102158009D01AD8F23A6FD00330B6041F9B997F7B8
:10216800FF1F9387A788CAC5A6C79043D4432E45A7
:10217800BE45EF105042AAC9AECBE2CDDECF4E46E7
:10218800DE46AA8A2E846E45FE45EF202016AAD187
:10219800AED3E2D5DED70E569E562A8AAE892E5584
:1021A800BE55EF20A014D6D9A2DB4E56DE56EF203E
:1021B800E01397F7FF1F9387E783CADDA6DF9043F5
:1021C800D443AA8A2E846E55FE55EF10D03C2320A6
:1021D8005111232281100326011083264110EF207C
:1021E800E0102326B1102324A1102328411103262F
:1021F80081108326C110AA8A2E84232A311103252F
:10220800011183254111EF20600E2A8DAE8C25B572
:102218003706F07F63E0CB022A863AC03EC2EF2041
:10222800E00C23A4AD0023A6BD0023A0AD0023A28B
:10223800BD0041BE13D44B411304A4BE131744017F
:10224800B384EB40232A91122328A1122A898325DB
:1022580041130325011397E9FF1F9389297AEF207A
:102268007014EF20901A232CA112232EB1122320D0
:10227800A1142322B1142324211523269114832782
:1022880081130328C113032601148326411403254F
:1022980081148325C1142324F11623260117EF2066
:1022A800E00403A6090083A64900EF10D02EAE84EF
:1022B8002A89EF20300FEF2050152328A114232A54
:1022C800B114232C2115232E9114032601158326DE
:1022D80041152328A116232AB11603258115832524
:1022E800C115A4120D49EF20600003A6090083A6BA
:1022F8004900EF10502A232CA116232EB116884826
:10230800CC4801468146E114CA897D19EF101016A0
:102318007DD5975700009387A7FC0947CE8622866C
:10232800EE85A8123D2082472A8BE3D807B003A682
:102338004D00B7060080B347D60003A6CD0023A200
:10234800FD00B347D60039B5860593D61500B68586
:102358008280130101C8232C81353ECA3A8C9757D5
:1023680000009387A70C0A07BA972328213723224E
:1023780051372328A1352326B13503AD0700232E75
:102388001136232C8136232A9136232631372324EC
:10239800413723206137232E7135232A91352AC8E6
:1023A80036C4B157AE8A938DF6FF01496347F600EC
:1023B8001309D6FFE1473349F90213041900A1575D
:1023C800B30CB941B309BD01130A0116E6843304FD
:1023D800F40232943387944163D3E9022248930C80
:1023E800012AE688A247B307F840634DFD08931712
:1023F80038009812BA97014A8144814995A8014545
:10240800814563CD0400D24713972400232001118E
:102418003E97084323221111EF20207F2320AA0092
:102428002322BA002A88AE888504210A65B7424764
:10243800939539009043BA95D4438841CC412326DB
:102448000111232411112320F110EF10D01452CCC4
:1024580026CE2A86AE866245F2458509EF00B0157C
:102468000328C11083288110832701102A8AAE848B
:10247800E117E3DE3DFB23A0480123A298000508ED
:10248800A1088DB7040A93172D00A6973ECC6A8A37
:1024980093173A00E69783A9070083AB470026887D
:1024A800528B634A60194EDC5EDE6255F255228615
:1024B800EF00E07E97E7FF1F938747559043D4438B
:1024C800AA8B2E8BEF10300D692597E7FF1F938796
:1024D800E7469043D443EF10100CDEC0DAC22A86D8
:1024E800AE8606459645EF107060AA892E8BEF20C0
:1024F800606BAA8BEF206071CEC4DAC62A86AE86DE
:102508002645B645EF10905E2E87AA896356801A35
:102518009307FAFF8A07A69703AB07006146018E67
:10252800B356CB40B69BB396C600330BDB4023A013
:102538006701DD47818F335BFB40635D6007850B77
:10254800A686014681486344461B63588000854738
:102558006301F41C89476307F41C8947631CFB0467
:1025680097E7FF1F9387073FCEC8BACA8843CC4373
:102578004646D64623201111EF10505783280110E4
:10258800AA892E8797E7FF1F9387C73C63840802B1
:1025980088432320B110CC4322861127032701103A
:1025A800CECC2A86BACEAE866645F645EF101054D4
:1025B800AA892E87BAD2CED00655965501468146AD
:1025C8002320E110EF10806A03270110631205220F
:1025D8009307FAFF01473E8663DEA7156301071CD0
:1025E800328A93172A00A6979C43211463800720F8
:1025F80097E7FF1F938707368843CC432286D28DFF
:10260800792D2A89AE8917E4FF1F1304A43F63D0EC
:102618000D28D2841308012063C20430939D34002E
:1026280017570000130787DCE69D81490149814758
:1026380033049A40F1A497E7FF1F9387A73C4ED035
:102648005ED29043D44302559255232001117D1B3D
:10265800EF106074EF200055EF20205B97E7FF1F15
:102668009387C7399043D4432326A1102324B1105C
:10267800EF1060724ED45ED62A86AE862255B255C9
:10268800EF10D046EF2000520323C1108328811099
:102698000328011013173B0066971AD846DA23203F
:1026A800A800104354434255D2553127032801103E
:1026B800AA89AE8B1108F5B311E89307FAFF8A07C8
:1026C800A69703AB0700135B7B4185BD97E7FF1F08
:1026D8009387C7289043D4432320B110014BEF10B0
:1026E800A05F03270110E34705EC094B89BD9C4215
:1026F80063990800B705000181EB05069106BE88BD
:1027080099B5B7050001FD15B387F5409CC285470B
:10271800EDB79307FAFF8A07A6979443A606A58202
:1027280094C325BD9307FAFF8A07A6979443AA0680
:10273800A982FDB793962700A6969442FD17558F58
:1027480061BD850771171443EDDE2247930B1A000C
:10275800330BEA000E0B98123A9B3E9AE34A7AD35F
:102768005247B30779018A07BA9788438149EF200E
:10277800C0492320AB002322BB00DA880148014767
:1027880063D20D03BAD8CEDAC657565893963B0093
:10279800E6969CC223A20601850B210BC1B76247AE
:1027A80085474DB7C2479315380003A60800BE9564
:1027B80083A648008841CC4123240111232011110C
:1027C8002326E110EF10205D0327C110CED62A86FC
:1027D800BAD4AE862655B655F92B0328811083281E
:1027E80001102A87AE890508E11859BF7D1AD5BBA3
:1027F800CEDCBADE6655F65533068040931D2A00B6
:10280800792997E6FF1F9386661F9C4203A8460016
:10281800AA893E86C2862E893EC442C6EF10C04BA6
:10282800634D050497E6FF1F9386C61D4EC14AC334
:1028380090420A45D4429A45050AA69DEF10A05534
:10284800EF2040362AC8EF20403C2246B2466104B9
:10285800EF1060544EC54AC72A86AE862A45BA4547
:10286800EF10D028EF200034424893172A0023A005
:10287800AD00A69723A00701A5BB4EC94ACB4A4580
:10288800DA45A69DEF20003223A0AD0095B39397BB
:102898002D00A697884313973D0066973AC4EF200A
:1028A800C0364ACD4ECF6A46FA46FD1DEF10A04EFF
:1028B80022474AD14ED308C34CC3104054400A554E
:1028C8009A55EF10404D2A89AE8991B303A60D00A1
:1028D80083A64D0008434C433EC83AC4EF10A04BB2
:1028E8004ED54AD72A86AE862A55BA55A10DE1217A
:1028F800C2472247AA892E89850721071308012084
:102908006344FD00E354F4FC4ED94ADB4A57DA57D6
:102918000E04429418C05CC0FD14FDB9894763C514
:1029280087056348801363030C0C8320C137032495
:10293800813783244137032901378329C136032A84
:102948008136832A4136032B0136032C8135832CAB
:102958004135032D0135832DC13413F57B00832BBD
:10296800C1351301013882808D47E310FCFC130C3C
:102978000120931C3A00E29C668D5284611D6348D5
:10298800800ED2840544E11C634D941201458145B3
:102998000544634244199C03B443F843B047FC47D9
:1029A80063170B1823A0DA0023A2EA0023A4CA00A5
:1029B80023A6FA0023A8AA0023AABA00BDB7931732
:1029C8003A00A2972ADD2EDF9043D4436A55FA5580
:1029D8007D1AD526E3550AFE63050B00B70700806C
:1029E800BD8D23A0AA0023A2BA0081B70145814565
:1029F8000004CDB793973400A297AAC1AEC3904301
:102A0800D4430E459E45FD147D26E3D504FEAE87CE
:102A180063050B00B7070080AD8FAAC5AEC723A01A
:102A2800AA002E46BE46032501208325412023A265
:102A3800FA008544EF10900B210463519A02630554
:102A48000B00B7070080BD8D23A4AA0023A6BA00F7
:102A5800E9BDD28401458145000445BFAAC9AECB72
:102A6800104054404E45DE458504B126F1B7832712
:102A78008D000328CD0003290D0083294D003E86D3
:102A8800C2864A85CE853EC442C63526AACDAECF7B
:102A98006E46FE46AA84AE8D4A85CE85EF10100597
:102AA8002246B2467D14012EA6D1EED38E571E586B
:102AB8002324AD002326BD002320FD0023220D0181
:102AC80075BD83A78C0003A8CC0003A90C0083A9BB
:102AD8004C003E86C2864A85CE853EC442C6E12C5D
:102AE800AAD5AED72E56BE56AA8D2E8D4A85CE852E
:102AF800EF10C07F2246B246FD14752CEED9EADBF2
:102B0800CE575E5823A4AC0023A6BC0023A0FC002B
:102B180023A20C018DBD93173A00E297AADDAEDF20
:102B28009043D4436E55FE557D1A71249DB523A05C
:102B3800DA00B7060080358FB58FB58D23A2EA007D
:102B480023A4CA0023A6FA0023A8AA0023AABA002D
:102B5800E9BB13D7454179711377F77F22D426D281
:102B68004AD05EC606D64ECE52CC56CA5AC8930B29
:102B780017C04D48AA872E84AE842A8963457809F0
:102B880063DE0B0297E7FF1F9387C7E89043D443A0
:102B98001D2401468146EF1020146353A006635D8F
:102BA800040E370700809307F7FFE18FB3E727018B
:102BB800BA840149B1C7B704F0BF99A0370B100018
:102BC8009309FBFFB3D9794133F7B900498F29CB72
:102BD80097E7FF1F938707E49043D443E92A014608
:102BE8008146EF10600F635DA00063560400335BFD
:102BF8007B41B3048B0093C9F9FFB3F43401014955
:102C0800CA87268431A8130830036358780313074A
:102C180000406397EB002A86AE86712AAA872E8425
:102C2800B250A285225492540259F249624AD24AB9
:102C3800424BB24B3E85456182801307D7BEFD5992
:102C4800B3D9E9003377350161DF17E7FF1F1307B1
:102C580067DC104354432A8BB92A01468146EF109A
:102C6800A007E35FA0F86357040051476399EB009E
:102C78009304140093C9F9FF3379390151B79306C6
:102C88004003B386764105473317D7003A99B337DF
:102C98006901B304F400F9BF0149814495B70111F2
:102CA80093D745415AC006CE22CC26CA4AC84EC63A
:102CB80052C456C293F7F77F328B85EF939715006E
:102CC8008583C98F9DCF97E7FF1F938727D5D44367
:102CD8009043EF10400CD176938606CB635DDB0200
:102CE80097E6FF1F938606D49042D442EF10A00ABD
:102CF80009A89306F07F2E876396D7022A86AE86A8
:102D08005D28F2406244D2444249B249224A924A7A
:102D1800024B0561828093D7454193F7F77F2E8751
:102D28009387A7FCB1669386063563D5660397E655
:102D3800FF1F938626CE9842DC4263D8050097E7AA
:102D4800FF1F9387A7CE9843DC4390423A85D4422D
:102D5800BE8569BF3306FB009307E07FE3C9C7FC64
:102D68006359C000B7051080FD15F98D5206D18D45
:102D780049BF9307B0FC635FF60097E6FF1F938691
:102D880066CA9842DC42E3D205FC97E7FF1F9387A7
:102D980067CA55BFB7071080FD17130666035206AA
:102DA8007D8FB367E60017E7FF1F130727C9104396
:102DB8005443BE8525BF3703100001117D1313D777
:102DC8004601B377B3003378D30056C293DA45018E
:102DD8008E0726CA52C493FAFA7F135AD50193D4A0
:102DE800F5010E089375F77F06CE1357D60122CC4E
:102DF8004AC84EC6FD82336AFA00B288B387BA4021
:102E080033670701131E3500931E36006389D40EFD
:102E18006355F00463920516B366D70163810630E3
:102E28009386F7FF638C06621306F07F6386C73AC2
:102E380013068003635FD6561304FEFF333E8E00ED
:102E4800330ACA4193168A0037078000BE8A63DABC
:102E58000604130AF7FF7D54B9A26384071AB387DF
:102E68005541639D0A3C3366CA01630006581386C0
:102E7800F7FF6307066A1305F07F638FA7621305E0
:102E880080036356C5741384FEFFB3BE8E00330AF5
:102E9800D74113168A00370780006341067CB68441
:102EA800BE8A9307440033B48700229A3E8493175E
:102EB8008A0063DD072093871A001307F07F2688AE
:102EC800638AE720370780FF7D1793F7F77F33770B
:102ED800EA001316D7010D802607418E3183F24090
:102EE8006244D207D98F1317F801D98FD2444249C7
:102EF800B249224A924A3285BE8505618280268877
:102F0800635DF01C63920516B366D70163890620DA
:102F18009386F7FF638E064E1306F07F6389C75AC0
:102F280013068003635CD66293168A003707800015
:102F380013041E00BE8AE3D606F63A8A0144850ABF
:102F48009307F07F6387FA18B70780FFFD17B377F9
:102F5800FA001357140005889396F701418F13DA86
:102F6800170033E4E60093777400B1D39377F40045
:102F78001147E38EE7F235B79306F07F638EDA24C4
:102F88009306800363D2F61C1304FEFF333E8E00C3
:102F9800330ACA4113178A00B7078000E35307F0C2
:102FA800138AF7FF7D545285EF20F060930785FF61
:102FB80013070002B306F740B356D400331AFA00D9
:102FC800B3E646013314F40063C7572FB38757415C
:102FD80085071D8F3316E4003336C000335AF400DA
:102FE800336646013397E6003364C70033DAF600E8
:102FF800B3674401814AA5FB2688814701470146FA
:10300800F9BD93871A0093F7E77F63920728B367A0
:10301800CA013366D70163910A3E638B0752630581
:103028000620B305DE413336BE00B307EA40918F70
:1030380013968700635F065C338ECE41B3BECE0124
:10304800330747413307D741B367EE007284B6842C
:10305800C5D79317870063D70760B70780FFFD17A9
:103068007D8F36888547B5B59306F07F6386DA1677
:103078009306800363C2F62CB7068000558FFD4681
:1030880063C8F640130600021D8EB316C7003396B8
:10309800CE00B3DEFE003357F7003336C000B3E688
:1030A800D601B3E7C6003A9A3E9EB337FE003E9A71
:1030B800728493178A00E3C407E893777400638CDB
:1030C800075A9377F4001147E39DE7DCD6870D8014
:1030D80091A8D6870147014619B563890710B387B8
:1030E800554163940A26B366CA01638D064C9386DC
:1030F800F7FF638F06301306F07F6384C73E13061D
:103108008003635BD65293168700370A8000BE8A15
:103118000144E3C606E213841E003A8A59B3131425
:1031280035000D801316DA019306F07F418E135790
:103138003A006398D708598E59CA01489307F07F17
:1031480037070800014661BBB7068000558FFD466A
:1031580063C0F618930600029D8E3314D700B39609
:10316800DE00B3DEFE00B336D0003364D40133573B
:10317800F700558C330AEA4033048E40333E8E0004
:10318800330ACA4193178A00E3D907F2260A135A69
:103198009A00E31A0AE02285EF20F041930785019F
:1031A8007D47E357F7E06115B316A40063D65715BA
:1031B800370780FF7D17758F1316D701B387FA403D
:1031C8000D833207318393F7F77F268809BB26885A
:1031D8009307F07F014721B31314350013553400CA
:1031E8001316DA01498E13573A00B1B793871A00BC
:1031F80093F6E77F639F0616B367CA01639E0A3A90
:10320800B366D7016380074085C2F29E33BECE0104
:103218005297330AC70193178A00768E63C0074214
:10322800B3E74E01E38A07DC135E3E001316DA01AA
:103238003366C60113573A00814761B71306F07F1A
:10324800638CC526130680036347F616370680008D
:10325800336ACA007D46634EF628130600021D8EA7
:103268003314CA003316CE00335EFE003336C00076
:103278003364C401B357FA00518C1D8F33848E40D8
:10328800B3BE8E00330AD741AE8AB684E5BD330497
:10329800DE4133368E00B307EA40918F13968700DC
:1032A800634A06123366F4003E8AE31406EE0148C8
:1032B800814701472DB1370A80FF7D1A13777400C3
:1032C800B38AFA4033FA4601E31D07DED68701B513
:1032D800938607FE13060002B356D700638AC70019
:1032E80013060004B307F640B317F700B3EEFE0069
:1032F8003334D001558C49B53384574193071400B2
:10330800635DF72E05141307000233D48600638B20
:10331800E70013070004B307F740B397F600B33785
:10332800F0005D8CE30A04CC93777400814AE39F34
:1033380007C2014A0D80FDB313178A00B707800042
:10334800635D071C3E8A0144DDBE9306F07F638AF5
:10335800D5189306800363D5F62093178700370A9C
:103368008000AE8A0144E3CC07BC13841E003A8A6D
:103378000DBE9306F07FE38FD7D4F29E33BECE0105
:103388005297729793DE1E001314F70193F67E008E
:103398003364D401135A170099C69376F400114682
:1033A800BE8AE390C6B00D801316DA01418E1183F0
:1033B80009BDB68769BB1384FEFFB3BE8E00330A0E
:1033C800D74113178A00B7078000634B071CB684E0
:1033D800AE8AC1BC338ECE41B3BECE01330747415E
:1033E8007284330AD741B6846DB3139638001354E8
:1033F8003600B6843A8A3DB3E9EB63090622139690
:1034080038009317D7010D82B6845D8E0D8325B3DE
:10341800F29E33BECE01529772979317870063D4FA
:103428000718B70780FFFD1793D61E007D8F9317E7
:10343800F70193F57600D58F135617006382051EA2
:1034480093F6F7009145638DB61C3384B700B33704
:10345800F400338AC7000D808947E9B1B30EDE4115
:10346800333EDE013307EA40330AC74193178A0027
:10347800768463CD070093DE3E001316DA013366C7
:10348800D60113573A0085472DBBB684854AFDB946
:10349800938607FE13060002B356D700638AC70057
:1034A80013060004B307F640B317F700B3EEFE00A7
:1034B800B337D001D58FCDBE939738001316D701F7
:1034C8008D83B6845D8E0D83BDB1E31806C61314D3
:1034D8003500935734001316DA015D8E13573A00FE
:1034E80099B9939738001316D7018D835D8E0D8394
:1034F80099B1138607FE130500023356CA00638A82
:10350800A70013050004B307F540B317FA00336E9C
:10351800FE003334C001518C95B313041E0051B220
:10352800338ECE41B3BECE0133074741330AD7416C
:1035380093178A007284E3CA07F4135E3E001316D9
:10354800DA01B6843366CE0013573A00854795B939
:10355800E30F06D43A8A768EB684F9B1B68705B6F3
:10356800B7068000336ADA00FD4663C4F606130620
:1035780000021D8EB316CA003316CE00335EFE005D
:103588003336C000B3E6C601B357FA00D18E3E9772
:10359800B69EB3B6DE00338AE6007684AE8A11BEE4
:1035A800AE8AB684F5BA1316D70193DE3E003366A9
:1035B800D6010D83854731B18DD7B36ED701E39E10
:1035C8000EB631B70E06135436003A8AA1BEB2873A
:1035D80051B1138607FE930600023356CA00638A68
:1035E800D70093060004B387F640B317FA00336E8A
:1035F800FE00B336C001D18E61BF130700021D8FD4
:103608000146F9BAE38A069E76843A8A81470D8094
:1036180011BE33E6F500E30C06C83E8A2E8E29B1AA
:103628008D8376065D8E1183894761BE01489307B5
:10363800F07F3707080065B0B6873DB7370780FFCA
:103648007D173377EA001316D70193DE3E000D830A
:103658003366D60133776700854751B0BE8AB68492
:103668006FF02FFF1316D701135E3E003366CE00AE
:103678000D838147B9B60D80D6876DB4797193D71C
:10368800450122D426D252CC56CA66C29394C500AC
:1036980006D64AD04ECE5AC85EC662C46AC093F7F0
:1036A800F77F2A84B28C368AB18093DAF501638A6F
:1036B80007121307F07F638BE7068E04935BD5012F
:1036C800B3EB9B0037078000138B17C0131C350022
:1036D800B3EBEB008144014D93574A011314CA0020
:1036E80093F7F77F3180135AFA01BDC31307F07FB0
:1036F800638FE70C0E0413D7DC01938717C0418F43
:1037080037048000330BFB40598C93973C000146EB
:103718003D47B3C54A01636E9718974600009386E4
:10372800E6D18A04B694984036970287B3EBA40092
:10373800639C0B143E8B93574A011314CA0093F7EA
:10374800F77F014CA144094D3180135AFA01D9FF82
:10375800B367940163850714630604362285EF2056
:1037680080652A87930755FFF5469D8E930787FF47
:103778003314F400B3D6DC00558CB397FC005A9789
:10378800130B373F014669B79307F07F814601471E
:10379800B2502254D207FE05D58FCD8F92540259CC
:1037A800F249624AD24A424BB24B224C924C024DE9
:1037B8003A85BE8545618280814781460147C9BFF8
:1037C80081459307F07FB70608000147D1B7B36773
:1037D8009401130B1B80E9EB93E424000144094690
:1037E80005BFB3EBA40063870B0A638F042A268501
:1037F800EF20605C2A87930755FFF54B130C87FF72
:10380800B38BFB40B3948401B35B7401B3EB9B00AF
:10381800331C84019307D0C0338BE7408144014DAA
:1038280065BDD6855E84E2870947E30FEDF40D4751
:10383800E308EDF80547E301EDF8930FFB3F7E87BA
:10384800635AF03B93F677006394063013D537003C
:103858009317740063D80700B70700FFFD17130715
:103868000B407D8C9307E07FE3C0E7F29316D40109
:10387800131694009377F77F33E7A6009356C60094
:1038880001BFD285328D4DB7A68B2A8C3E8BB144B1
:103898000D4D99B5014C9144014B054D35BD93E44F
:1038A800140001440546ADB593E43400E6870D469F
:1038B80085B56362741F638E8B1CE2867D1B014C89
:1038C800131784001353070133D46B0213D68701EF
:1038D800598E9318060193D8080113D70601139837
:1038E8008700B3FB6B0233858802C20BB36777018D
:1038F80063F8A700B2971307F4FF63F6C7243A8466
:10390800898F33D76702C206C182B3F76702B38FC4
:10391800E802C207DD8E63F8F601B2969307F7FF57
:1039280063FEC6203E874204598C93170401131E78
:103938000801C183135E0E01935E0801135504014B
:103948003387FE02B386F641338FC703B30FC5032F
:1039580093570F017E97BA973305D50363F4F701A0
:1039680041673A95931F0F0113D70701139F07016A
:1039780093DF0F01B307A7007E9F63E2F60E638E05
:10398800F60C330FEC41333CEC019D8E930FFB3F5B
:10399800B38686417E876304D616B3D7660213556D
:1039A8000F01B3F66602B382F802C206C98E63FB42
:1039B8005600B2961385F7FF63E2C61A63F0561AEB
:1039C800F917B296B386564033D56602420F135F95
:1039D8000F01B3F66602B388A802C206336FDF0090
:1039E800637B1F01329F9306F5FF636BCF166379E4
:1039F8001F177915329FC207C98F93960701C18295
:103A080093D207013385DE02330F1F413383C2038C
:103A1800330EDE021A9593560E01AA96B38E5E02F5
:103A280063F466004165AA9E13D50601420E135E33
:103A38000E01C2067695F2966367AF0A6303AF0A72
:103A4800930620C093E717006348DB1213854700ED
:103A5800B337F5000D813E94E5BBE374ECF333070F
:103A68000C0133358701B30FC500FE963A8C930FCE
:103A7800F4FF6371D60C63E6F600639FD70A637D93
:103A8800E70B42973335070132957914AA963A8C99
:103A9800CDBDE364FCE29396FB0113571C0093DB56
:103AA8001B00D98E7E0C29BDEF20E030930755010D
:103AB800F14613070502E3D2F6D46115B31BA4003F
:103AC800014C89BB6685EF20002F93075501F1460D
:103AD80013070502E3DAF6C861153394AC00814791
:103AE80079B9E38E06D4329FFA881383F7FF636BA4
:103AF800CF06636AAF126303AF149A8791B7014583
:103B08008547E34AF0F563960F0837070080931757
:103B1800F4017D17D98F058013874700B337F70065
:103B28003E94BA8713178400635907128547814664
:103B38000147B9B9630ED6027E84A1B5E3F4F6DF76
:103B48007917B296CDB3E3FCA7DA7914B2974DBBD7
:103B580093F6F7001146E38BC6CECDBDAA879DB577
:103B6800368551BD9A87E39DA8ECE39B06EDC1B964
:103B780061F5E3E8F6F011B7130710C0631CEB001A
:103B880013D71700136717009317F401D98F05800F
:103B980061B7FD5705473307F74193068003E3CD27
:103BA800E6C0FD4663D2E60A8556B386F64113069B
:103BB8000002B356D4006307C700130BEB4333145A
:103BC8006401C18FB337F000D58F13F777008146B2
:103BD80011CF13F6F700114501476309A600338694
:103BE800A700B337F6001397D701B2878D835D8F8F
:103BF800814779BEE3900FFA93F6770013D6170042
:103C08007D4B0547ADE2331B6401558EB367CB008E
:103C180093F677003354E40091D613F7F7009146F2
:103C2800E302D7F0D5BD13131800B3380301B298D7
:103C3800FA98F9171A88E38AA8F219B5E365D8FE45
:103C48009A87E39F06DFE5BE130BEB41B396670146
:103C5800B336D00033D6E7007DB793169400B1820F
:103C68001317D40161B7B3F6E70071BF13D7450145
:103C7800B707100013D84601FD171303F07F137719
:103C8800F77F33FEB700AA88F58F33786800FD8187
:103C9800FD820545630A670063076800631407012E
:103CA8006300FE0282808280E31EE8FEB367FE00A6
:103CB800D18FB3E71701FDF7958D3335B0008280BA
:103CC800E392C8FE6388D50071FF336E1E01333559
:103CD800C00182800145828093D84501B707100052
:103CE80013D746012A88FD171303F07F93F8F87F4E
:103CF80033756700428E33F7B700B28EF58FFD81BA
:103D0800FD82638E6802630F650063970804336859
:103D1800070121E15D8E35C2631C08061395160064
:103D28007D1582805D8E3DE263950800336707014B
:103D380075D7639BD500139515007D158280336771
:103D4800070129E7630E1503B305B04013E5150015
:103D58008280E30508FCF1BF65D9E397D5FEE3450A
:103D680015FFE3CAA8FCE3E1E7FEE316F7FCE3ED81
:103D7800CEFD0145E361DEFD8280E31708FC828009
:103D8800D18F89E7E392D5FC0145828079558280FD
:103D9800E38BD5FC55BF797193D7450122D426D240
:103DA80052CC56CA62C41394C50006D64AD04ECE29
:103DB8005AC85EC666C26AC093F7F77FAA8A328C71
:103DC800B684318013DAF501638207341307F07F74
:103DD8006384E7220E041357D501418F370480000E
:103DE800138B17C0931B3500598C814C014D93D709
:103DF80044011397C40093F7F77F935AC700FD80D7
:103E0800638F07201307F07F638EE72C938717C013
:103E180029473E9B634C972513973A009357DC013B
:103E2800D98FB3469A00370780000946B3EAE700FE
:103E380013183C00B685814763519603054633162F
:103E48009601137706536314072293750624639B20
:103E5800053C13768608631A063A93970B011316E6
:103E68000801C183418293DB0B0113580801338792
:103E7800C7023385CB0213530701B305F802AA958D
:103E88002E93B38E0B036374A300C165AE9E139E7D
:103E98000A014207135E0E0193DA0A014183931562
:103EA8000301B388CB03BA95135303013387C703C0
:103EB800B387FA0213550701C6973E95B38B5B0388
:103EC80063741501C167BE9B93170401931807011A
:103ED800C183418093D8080113170501B30FF80275
:103EE800469741813A935E95B308C402338FC7025F
:103EF800C69F13560F017E96330888026374160115
:103F0800C1684698420F93180601135F0F0141825A
:103F1800469F4296B308C4033388C703B387FA029F
:103F2800135E0801C6973E9EB38A8A0263741E0117
:103F3800C167BE9A9318080193D8080193170E0118
:103F48003308D301C6973E953337E800B308E80134
:103F58002A973A9633B808013298B337F5003335C3
:103F6800A700C98F3337E600135E0E013336C80049
:103F7800F297518F939B98003E97B3EBBB005697EF
:103F88002607B33B700193D8780113547801B3EB3B
:103F98001B01260893177700598CB3EB0B0163C9F3
:103FA80007109307FB3F635BF02013F77B0015C7EF
:103FB80013F7FB0011466302C70213874B00B33B9C
:103FC80077015E94BA8B131774006358070037079C
:103FD80000FF7D1793070B40798C1307E07F634937
:103FE800F7241317D40193DB3B00260493F7F77FDC
:103FF80033677701318049A8B36BA40063940B1A27
:104008003E8B93D744011397C40093F7F77F01447D
:10401800A14C094D935AC700FD80E39507DE33E8AC
:104028008A016308081263880A225685EF10B0587F
:10403800AA87130755FFF546998E138887FF33978C
:104048000A01B356DC00B3EAE60033180C01B307E3
:10405800FB402947138BD7C0634A97018947B3466A
:104068009A00E3DC97DFB6858147C9BBD2858947CB
:104078006304FD1A8D47630CFD128547AE866314F1
:10408800FD04814701440147D207B250C18F225431
:10409800FE06D58F92540259F249624AD24A424BDF
:1040A800B24B224C924C024D3A85BE8545618280C6
:1040B80093D71B0093FB1B00B3E77701931BF40115
:1040C800B3EB7701058093070B40050B6358F00E9F
:1040D80013F77B00E30907EE13F7FB001146E31E15
:1040E800C7ECD5B533E88A01130BFB7F631B0808BF
:1040F80093E72C002947E34BF7F6B3459A00AE86C1
:10410800638E0C1CBE8C814A89470DBBB36BA4001F
:10411800638C0B02630304122285EF10D0492A87AF
:10412800930655FFF547930B87FF958F331474015A
:10413800B3D7FA005D8CB39B7A019307D0C0338B59
:10414800E740814C014D65B10144914C014B054D4F
:1041580079B993EC1C00A947E3CA97F1B3459A00D3
:104168000947AE86814A8547E34A97CD0947638563
:10417800E70A054D85470144814BAE86E315FDF4FA
:1041880009B793EC3C002947634597150547331653
:10419800970113768608B3469A0062888D47E30E26
:1041A80006CAA5A0AA8B3E8BB14C0D4D89B181469C
:1041B8009307F07F370408000147F9B50546DDEBA2
:1041C800130BEB41B3976B01B337F000331B64015A
:1041D800B3E7670133D7CB005D8F9377770033560A
:1041E800C40081CF9377F70091456388B700B30780
:1041F800B70033B7E7003A963E879317860063D136
:10420800070E85470144014741B53E8D8947A6857C
:104218005684C28BE310FDE6AE869307F07F014417
:1042280001479DB581469307F07F37040800A9BD73
:104238009307F07F0144014781BDEF10D037930603
:104248005501F14713070502E3DED7EC61153394F6
:10425800AA00814BDDB56285EF10F03513075501D3
:10426800F14693070502E3D8E6DC6115B31AAC0002
:104278000148F1BB1D8E13078003E344C7E07D4767
:10428800E350C7F40557B307F74013070002B357C5
:10429800F4006308E600130BEB43331B6401B3EB34
:1042A8006B01333770015D8F93777700014491CFAD
:1042B8001376F700914581476309B6003306B700C6
:1042C8003337E6009317D70132870D835D8F814717
:1042D80065BB81463704080001477DB3894779B536
:1042E8001314960031809317D601C5B7B70710008D
:1042F800FD170111B3F8B70013D84601F58F8E08E2
:104308001397370026CA52C456C2135AD50193DAF6
:1043180045019357D60193D4F5011303F07F06CED8
:1043280022CC4AC84EC61378F87F336A1A01328EF7
:10433800D98FFD82B3FA6A00A685931E35009318BB
:1043480036006308681693C6160033870A416385EA
:10435800D40C6353E05A630B081863806A3A9306D7
:10436800800363C3E61AB7068000D58FFD4663C590
:10437800E64693060002998E3394D700B396D80088
:10438800B3D8E800B336D0003364140133D7E7005C
:10439800558C330AEA4033848E40B3BE8E00330A0C
:1043A800DA4193178A0063C3072E93777400638EEC
:1043B80007329377F40011476389E7329307440083
:1043C80033B48700229A3E8493178A0063DF07304C
:1043D80093871A001307F07F93F51400638FE7267D
:1043E800370780FF7D1793F7F77F3377EA001316B7
:1043F800D7010D802607418E3183F2406244D207EF
:10440800FE05D98FCD8FD2444249B249224A924AF9
:104418003285BE85056182806359E05A631C082095
:1044280033E71701630E07221387FAFF630D074668
:1044380063856A5C9306800363C8E620FD4663C112
:10444800E65213060002198EB396C7003396C800C9
:10445800B3D8E8003336C00033D7E700B3E6160117
:10446800B3E7C6003A9ABE9EB3B7FE003E9A76847A
:1044780093178A00E3DB07F2850A9307F07F638DC1
:10448800FA4CB70780FFFD17B377FA0013571400EB
:1044980005889396F701418F13DA170033E4E60095
:1044A8009377740095D39377F4001147E398E7F076
:1044B80021BF33E7170113861A8069C76388D40CB4
:1044C80063070610638B0A2C13173E001396D70157
:1044D8000D83B684598E8D835D8E630A06208145CF
:1044E8009307F07F37070800014601BF33E717013C
:1044F800630807161387FAFF63090742638F6A1E6A
:1045080093068003E3D4E6E61384FEFFB3BE8E0071
:10451800330ADA4113178A00B7078000E35007EA25
:10452800138AF7FF7D545285EF10F008130785FFB3
:1045380093070002B386E740B356D400331AEA0063
:10454800B3E646013314E400634C5723330757415D
:104558000507998F3316F4003336C000335AE40048
:10456800B397F6003366460133E4C70033DAE60052
:10457800B3674401814A8DF793F5140081470147D9
:104588000146A5BD93C61600E39CD4F2630F061638
:1045980063930A2C4287B366DA01638C065293064A
:1045A800F7FF638206301306F07F6306C72A1306F7
:1045B80080036355D65A93968700370A8000BA8AD3
:1045C8000144E3CB06EA138418003E8AC5BB13876F
:1045D8001A001377E77F6312071833E6170133676A
:1045E800DA01639D0A28630F0746630E0614B38534
:1045F8001E4133B6BE003307FA40118F13168700E9
:10460800635B0652B38ED841B3B8D801B38747412C
:10461800B387174133E7FE007684B68431DF1397FA
:10462800870063520756370780FF7D177D8FB68551
:10463800854775BB63836A0C9306800363C6E600EF
:10464800B7068000D58FDDBB13178A00B707800037
:104658006351072A3E8A014405B50147014671BBEB
:10466800131435000D801316DA011307F07F418EFD
:1046780093573A00E382EAE6B20713D7C70093F5E7
:10468800140093F7FA7F95BBB684854A260A135A15
:104698009A00E31A0AE82285EF10E07113078501F2
:1046A800FD47E3D7E7E86115B316A400634A571539
:1046B800330457411307140063D4E74605149307DE
:1046C800000233D48600630AF70093070004998F29
:1046D800B397F600B337F0005D8CE30F04E89377E7
:1046E8007400814AE39107DC014A0D80ADBF93F560
:1046F80014009307F07F014709B30E050D811316C7
:10470800DA01498E93573A00C1BB13871A00937692
:10471800E77F639106103367DA0163950A3AB3E6D7
:1047280017016304074085C2F698B3BED801D29733
:10473800338AD70193178A00C68E63C30742B3E74B
:104748004801E38B07E293DE3E001316DA01336675
:10475800D60193573A00814A05B733841E4133B6D0
:104768008E003307FA40118F13168700634D060E2B
:104778003366E4003A8A11FE814581470147B5B99D
:10478800370A80FF7D1A93777400B38AEA4033FAB8
:104798004601E39007C20D80F9B542873366DA0116
:1047A8007DCA1306F7FF630706289305F07FE30D1C
:1047B800B7D09305800363DEC5321384F8FFB3B81E
:1047C8008800338A174113168A00B70780006349A7
:1047D800063AB684BA8ADDB6930607FE13060002C7
:1047E800B3D6D700630AC700130600043307E640B0
:1047F800B397E700B3E8F80033341001558C61BE75
:10480800B70780FFFD17F58F1396D701B38AEA40E3
:104818008D839DB59306F07F6302D72AF698B3BEC1
:10482800D801D297F69793D818001394F70193F606
:1048380078003364140113DA1700638E0634937614
:10484800F4001146BA8AE39BC6B61316DA010D8046
:10485800418E918315B513173E001396D7010D832A
:10486800598E8D8395B9B38ED841B3B8D801B38723
:1048780047417684338A1741B68421BD631D0716E4
:104888006308062C13163E001397D7010D82B684D1
:10489800598E8D8391B113163E0013543600B68499
:1048A800BA8A3E8AC9B3F698B3BED801D297F697AA
:1048B8001397870063560722370780FF7D1793D623
:1048C8001800F98F1397F70193F57600558F13D6D3
:1048D8001700638905269376F70091456384B62609
:1048E8003304B7003337E400330AC700894A0D8020
:1048F8009DBB13841E00D9B4E30B07CC3307584182
:10490800E38E0AE8130680036350E6081384F8FF71
:10491800B3B88800338A174113178A00B707800095
:1049280063480718B684C28A51BCB3881E41B307CE
:10493800FA40B3BE1E01338AD74193178A004684D2
:10494800E3C507D493D838001316DA0133E6C80054
:1049580093573A00854A0DB3D6870147014671BC83
:10496800930607FE13060002B3D6D700630AC700F2
:10497800130600043307E640B397E700B3E8F800EE
:10498800B3371001D58FC5B437068000B684336AB3
:10499800CA00FD4663CCE60693060002998E3314DE
:1049A800DA00B396DE00B3DEEE00B336D00033642F
:1049B800D4013357EA00558C998F33848840B3B8B3
:1049C8008800338A1741C28AE9BAE30007D433075B
:1049D8005841E3820ABC9306800363DBE608139719
:1049E8008700370A8000C28A0144E34707A8138476
:1049F80018003E8AE1B2E31406AE931735008D83A2
:104A08001316DA015D8E93573A00F9B4930607FE40
:104A180013060002B356DA00630AC700130600043F
:104A28003307E6403317EA00B3EEEE003334D00123
:104A3800558C61B7B38ED841B3874741B3B8D80115
:104A4800338A174193178A007684E3CF07C293DE2F
:104A58003E001316DA01B6843366D60193573A003E
:104A6800854A19B9E30A06D03E8AC68EB684E1B9EA
:104A7800B7068000336ADA00FD4663CFE606130600
:104A88000002198EB316CA003396CE00B3DEEE00CC
:104A98003336C000B3E6D6013357EA00D18EBA9751
:104AA800B698B3B6D800338AF6004684C28AC9B22B
:104AB800C28AB684138AF7FF7D54B5B4BA87014613
:104AC800014725BAE30907D8B3E81701E39908A015
:104AD8002DB713163E0013543600BA8A3E8A61B6C3
:104AE8001396D70193D83800336616018D83854A0B
:104AF80061B6B684328771BD130607FE93060002BD
:104B08003356CA00630AD700930600043387E64089
:104B18003317EA00B3EEEE00B336D001D18E49B7B1
:104B280093070002998F014625BCE38706A44684B3
:104B38003E8A0D800DBE33E6E500E30F06C23A8AD1
:104B4800AE8E11B10D837606598E9183894A2DB6A2
:104B580081459307F07F3707080045B0368729BF9E
:104B6800B70780FFFD17B377FA001396D70193DED6
:104B78003800A60713D7C7003366D6018547B5B8EE
:104B8800BA8AB68471BA1396D70193DE3E003366AB
:104B9800D6018D83D5B40D801316DA01418E918329
:104BA800BA8AD9BC93D74501B70610001387F6FF18
:104BB80093F7F77F1306E03F6D8FFD81635BF60087
:104BC8001306D0416359F600370500807D152E95F0
:104BD800828001458280130630431D8E7D48558FA3
:104BE800635DC80093063041B387F6403357F7003A
:104BF8003305E040E5F13A8582809387D7BE3317C5
:104C0800F7003355C500498FE5B7011106CE22CC10
:104C180026CA4AC84EC615CD1357F541B344A70056
:104C2800998CAA87268513D4F701EF10C01893072B
:104C3800E041898F294793F7F77F634DA7022D47F6
:104C4800098F33D7E400320755053183B394A400A4
:104C580029A00144814701478144D2077E04D98FA6
:104C6800F240C18F62444249B2492685BE85D2448A
:104C78000561828055153397A4003207318381443A
:104C8800E9BFB706800001119357750113D6750166
:104C9800FD1633F7A60026CA4AC81376F60F13F98D
:104CA800F70F9354F50106CE33F5B600FD81B3072F
:104CB800C9401313370093183500638DB40A635A3B
:104CC800F008630F06109306F00F6302D91E37072A
:104CD8000004B3E8E8006D476350F7289307F3FF33
:104CE80013975700635C071A22CC7D539316630011
:104CF80013D466002285EF10000C6D15B316A400BE
:104D080063592521370300FC7D1313F77600B30799
:104D1800A94033F3660063050742BD8A1147624420
:104D28006381E618110313175300635C07168507A0
:104D38001307F00F26886398E70C3E850147F24079
:104D48005E05598D9317F801D24442495D8D05617E
:104D58008280E1C3B3072641631F09106302033051
:104D68001387F7FF630C07369306F00F6389D73272
:104D7800BA8711AA26886357F01469EE638308126C
:104D88009386F7FF6385062E1306F00F6381C7121B
:104D9800ED4763C8D70CB687130700021D8F3397FA
:104DA800E8003337E000B3D7F800D98F3E93931764
:104DB800530063D5071C930719001307F00FE38E00
:104DC800E7F6B706007E13571300FD16758F1373A9
:104DD8001300336367001377730063130716B5A2D4
:104DE8006381080C9386F7FF638206101306F00FA1
:104DF800638FC70AB687C5B513175300635E0732BA
:104E080062442688854713F5F70F13176300258337
:104E18003DB79306190093F6E60F6395061A631DCE
:104E280009086308032A63820804330713419316A9
:104E3800570063D60628338368402E886303032807
:104E4800931753000545E3C207FC13573300AE849C
:104E5800814721A89306F00F630BD9046D4763516E
:104E6800F718130753000D83CA872607258313F500
:104E7800F70F2688E9B51307F00F6302E622370714
:104E880000043363E3006D476351F7169387F8FF17
:104E980013975700634A0722AE8432891383470069
:104EA800CA879306F00F13573300E390D7FC268880
:104EB8001305F00FE30507E801481305F00F37075E
:104EC8004000B5BDF9C7B307264163120916630A46
:104ED80003181387F7FF630C07189306F00F638115
:104EE800D71CED4763C8E71CBA87A9AA3307134143
:104EF80093165700B707000463DB061AFD1722CC88
:104F08003374F7002285EF00106B6D15B316A400FB
:104F18000549B30725418507130300023303F3400E
:104F28003393660033336000B3D6F60033E366008C
:104F3800630A0316137773008147E30F07EA624495
:104F48001377F3009146E31FD7DC13175300E340B0
:104F580007DE1357330011BF130700021D8F339765
:104F6800E8003337E000B3D7F800D98F3303F340B4
:104F78009317530063D4070022CC8DBB937773003B
:104F88006382071C1377F3009146CA87E31CD7D8BE
:104F980009BF9307190013F6E70F3DE663170916D3
:104FA80063090316638A081633071301931757001A
:104FB80063DA0716B707801F0D83FD177D8F758F7E
:104FC8000545B5BB22CC330413419317540063CC79
:104FD8000708E31104D2624401480145014785B33B
:104FE80037070004B3E8E80045BB130700021D8F2C
:104FF8003317E300B357F3003337E000D98F328912
:10500800AE843383F840ADB71307F00FE387E7D2D8
:105018003307130105839376770081CA1146937687
:10502800F7003303C700E39EC6E60D833DBD1307B3
:10503800F00F6307E6066D47634EF706370700046F
:105048003363E300130700021D8F3317E300B357E0
:10505800F3003337E000D98F32893383170181BBDE
:10506800AE8446833DBD33846840AE8461B1B307E6
:10507800130113975700635A070A85833707007E81
:105088007D1793F677007D8FCDC693F6F70011460E
:105098003303C7008947E396C6E00D83F9B3AE84AE
:1050A8002A8731B5624426880145014749B90D83ED
:1050B800854765BB138758000D83B2877DB335F7E5
:1050C800014801450147A5B922CC3289AE847D53F8
:1050D80031B9E38708FEAE842A8741BB338768402D
:1050E80093165700B707000463DA0602FD1722CCAF
:1050F8003374F70022852EC6EF00F04BB2456D15CC
:10510800B316A400AE84054929B5E31703DA2A8744
:1051180079BB2A87E38708FA814781BB0D83AE8470
:105128008547A1B30D83814789B313D737008547D6
:105138002DBB89470D8315BB62441357330035B324
:10514800624485B3CA87B1BB93567501370780009F
:10515800AA877D1713D5750193F6F60F1306F00F7E
:105168003378F7001375F50F6D8FFD83FD81638824
:10517800C602630BC5008DEE11E921CB631008064A
:10518800139515007D15828021EB99E2E30A08FE4C
:105198006380B704B307F04013E517008280631DEE
:1051A8000802E319D5FE0DEBE396B7FE01458280B0
:1051B80075D1E391B7FEE34FD5FC63CBA600E36B53
:1051C80007FD01456366E8008280E31508FC8280DC
:1051D800139517007D15828079558280E39CB7FA74
:1051E800F9BF9356750137078000AA877D1713D535
:1051F800750193F6F60F1306F00F3378F700137561
:10520800F50F6D8FFD83FD81638BC602630BC500AF
:10521800A1E219E915C363120806139515007D1557
:105228008280094501EF99E2E30908FE639DB70012
:10523800139517007D158280631708008280631C10
:1052480008026304D502B307F04013E51700828013
:105258007DD9E39AB7FEE348D5FEE3CBA6FCE36429
:1052680007FF0145E37CE8FCE1B7094561FBE39CE6
:10527800B7FC0145828009458280E396B7FCC5B733
:1052880079719357750126D252CC06D6131A950018
:1052980022D44AD04ECE56CA5AC893F7F70F135A9B
:1052A8009A009354F501638A07201307F00F638D62
:1052B800E7100E0A37070004138917F8336AEA0063
:1052C8008149014B93D77501939A950093F7F70F8E
:1052D80093DA9A0013D4F501638907101307F00FC6
:1052E800638BE71A938717F829473E996346371364
:1052F800370700048E0AB3C684008947B3EAEA0078
:105308003685014763D137038547B397370113F6CD
:1053180007536314061013F607246316061093F751
:105328008708639A072293950A0113170A01418394
:10533800C18113560A0193DA0A013385E502B305E0
:10534800B602935705013387EA022E97BA973306B8
:10535800560363F4B70041673A964205139707016D
:1053680041812A97C183131A6700B29769839A0704
:10537800333A4001336AEA001397470033EA47019A
:10538800634A071E9307F9076355F01813777A00E5
:1053980015C31377FA001146630EC700110A1317D5
:1053A8004A0063590700370700F87D179307090873
:1053B800337AEA001307E00F634AF71A13176A00F3
:1053C800258393F7F70FADA03E8963110A1493D78D
:1053D8007501939A950093F7F70FA149094B93DA52
:1053E8009A0013D4F501E39B07EE63830A065685FA
:1053F800EF00701CB307A94029471389A7F8634D2C
:1054080037016D158947B39AAA00B3C68400E3DC57
:1054180037F136850147CDBD268589476303FB14DF
:105428008D476318FB0481469307F00F3707400048
:10543800B250225413957701598D9397F6019254DF
:105448000259F249624AD24A424B5D8D45618280D7
:1054580093E91900A947E3C137FD33C5840089479B
:10546800AA860547E3C237EB8947630CF70E014A62
:10547800054B8547AA866308FB08930709080509B1
:105488006359F00813777A0019DB1377FA0011468D
:10549800E316C7F029B71309F90F63960A0493E7CF
:1054A80029002947E34AF7F633C58400AA86094745
:1054B800E38C09FABE89094781BD63160A00914940
:1054C8000149054B01B552852EC6EF00D00E1307D2
:1054D800B5FF9307A0F8B245331AEA003389A7400D
:1054E8008149014BC5B393E939002947634B370913
:1054F8008547B397370193F78708B3C684000D47EC
:10550800E38307E289A8814701471DB7B1490D4BDD
:1055180055BB054699C71D8EED4581470147E3C92F
:10552800C5F01309E90933192A0133392001B357A2
:10553800CA00B3E7270113F7770019C713F7F70075
:1055480011466303C700B29713975700635F0702BA
:1055580085470147F1BD3A8B89472285568AE31171
:10556800FBECAA869307F00F0147D9B59307F00F14
:1055780001477DBD93571A00137A1A0033EA470191
:10558800EDBD81463707400065B59A0713D79700E8
:10559800814779BDB7068000011193D77501FD16C3
:1055A80033F7A60013587501ED8E9358F50126CAF6
:1055B8004AC806CE93F7F70F1306F00FFD81131EA6
:1055C8003700139536001379F80FC6846384C71023
:1055D80093C515003303F940638AB808635A6038E5
:1055E800638307186301C914B70700045D8DED478D
:1055F80063D267241307FEFF9317570063DC071075
:1056080022CC7D5E93176E0013D467002285652730
:105618001303B5FFB3176400635C231D370E00FC4A
:105628007D1E13F777003303694033FEC701630A11
:105638000744BD8B114762446381E70E110E93172F
:105648005E0063DC070C130513009307F00F93F853
:1056580014006312F5100147F2405E05598D9397C7
:10566800F801D24442495D8D0561828063586034F7
:10567800639307105DC19307F3FF6384072C6304EA
:10568800C30A6D47634EF70E3E8393060002B38646
:105698006640B316D500B336D000B3576500D58F32
:1056A8003E9E93175E0063DA071A130319009307E7
:1056B800F00F630EF3263707007E93571E007D1701
:1056C800F98F137E1E0033EEC70193777E00639730
:1056D800071491AA130619F039ED93C515006388CC
:1056E800B81E55CA631309243E8363090E241307A1
:1056F800F3FF630807301306F00F6302C32EED466D
:1057080063DAE6281307F5FF9316570063C1062EE0
:10571800AE843E89130E47004A839307F00F135750
:105728003E006313F3066306073481481305F00F40
:105738003707400015B7638BB81431CEE30609FA72
:105748003E8581483707400001BF93175E00054535
:1057580063D5073262441375F50F13176E0025835E
:1057680093F81400D5BD55D99307F3FFB9CFE30CCF
:10577800C3FA3E83ADBDE308C9FAED4763DE671699
:1057880013075E000D834A83260725831375F30FDD
:1057980093F81400D1B59307190093F7E70FE9EBD5
:1057A800E31509F8630A0E24630805203307AE40A1
:1057B8009317570063D20728330EC541631E0E287E
:1057C80093F815000145014741BD3307AE409316D4
:1057D8005700B707000463D10620FD1722CC3374A5
:1057E800F7002285C92B1303B5FFB31764000549D9
:1057F800330323410503130E0002330E6E40339E1C
:10580800C701333EC001B3D7670033EEC701630D4C
:105818000E1693777E0001438DDB62449377FE007A
:105828001147E39DE7E093175E00E3CE07E01357C7
:105838003E0099BF93060002B3866640B316D500B2
:10584800B336D000B3576500D58F330EFE4093179B
:105858005E0063D4070022CC75B393777E0063841F
:1058680007229377FE0011474A83E399E7DC75B571
:1058780022CC3304AE409317540063CD070AE317D4
:1058880004D86244814801450147F9B331C2E3199C
:1058980009EA3E8363050E0A1307F3FF5DC3130687
:1058A800F00F630FC312ED4663CEE6123A83130777
:1058B8000002330767403317EE0033536E00333767
:1058C800E0003363E3003E89330EA300D9BB21EE29
:1058D800130319009377E30F85E7631B0914630A21
:1058E8000E0C79C93307AE009317570063DB071412
:1058F8001A07258305458DB3B70700045D8D71B37D
:105908009307F00F6305F3023307AE00058393771F
:10591800770081CB91469377F700330ED700E39E4B
:10592800D7DE0D8395B5E30609F693F81500130540
:10593800F00F15B33304C541AE84C9B9AE842A8EBD
:10594800E9BBB307AE00139757006353071085836D
:105958003707007E7D1793F677007D8F63880610E2
:105968009146BD8B330ED7000943E398D7DA55BF6C
:10597800E30303E2338727413A83E30809D6B706EE
:105988000004336EDE00A5BB624493F814000145A1
:105998000147D9B193060002998EB316DE0033573A
:1059A800EE00B336D000558F3E89AE84330EE54005
:1059B80079BD3687E30105CA0143F9B3E30A03F069
:1059C80033832741E30809EC6D47634D67003707C8
:1059D8000004336EEE00E1BD0D83054375B3AE845C
:1059E800368791B3130755000D833E8371BB22CCD4
:1059F8003E89AE847D5E39B129C1AE8436870143C4
:105A080061B33307C54193165700B707000463DD38
:105A18000602FD1722CC3374F70022852EC6612EAC
:105A2800B2451303B5FFB3176400AE840549C9B383
:105A3800E31D0ECE3687C5B909E781480145014700
:105A480021B90D83014389B30D83AE8405432DBB72
:105A580013D7370005430DBB93175E00AE84054589
:105A680013573E000143E3CA07CE39BB09430D83F0
:105A780021BBA68593F815005DBD624413573E000F
:105A880021B3624459B94A8349B913577501370696
:105A980080009307F6FF1377F70F9305E007B3F637
:105AA800A7009357F50163DBE5009305D00963D997
:105AB800E500370500807D153E958280014582808E
:105AC80093055009D18E63CDE500130660093307AD
