:040000006F00007914
:10000400000000000000000090000020AA02002070
:10001400A9BDF9F5900000200000000000000000D8
:10002400900000209000002000000000000000006C
:10003400900000200000000090000020000000005C
:1000440090000020900000209000002090000020EC
:10005400900000209000002090000020000000008C
:1000640090000020900000209000002090000020CC
:1000740090000020900000209000002090000020BC
:1000840090000020900000209000002090000020AC
:1000940001A09167938787A90100FD17F5FF82806E
:1000A400011113078008F337078093F787083EC2CE
:1000B40001000100B7170040930570052380B704C1
:1000C400130680FA2380C7040100010083C6B70425
:1000D40093F6F60DA385D704238007049246F3A66E
:1000E40006800100010093760502D5CEF336078021
:1000F40093F6860836C4010001002380B7042380E8
:10010400C70401000100B70614007D89558D88C716
:10011400010001000100010023800704A246F3A6A8
:1001240006800100010073370780137787083AC6F9
:10013400010001002380B7042380C70401000100EB
:10014400010001003727004093061005A303D78060
:1001540023800704B247F3A7078001000100930737
:100164008008F3B7078093F787083ECE01000100AB
:10017400B7170040130770052380E704130780FABC
:100184002380E7040100010003C7B70413670708CD
:10019400A385E70423800704F247F3A7078001003F
:1001A40001000561828093760504BDCAF336078099
:1001B40093F6860836C8010001002380B704238023
:1001C400C70401000100B7061400938606047D8964
:1001D400558D88C701000100010001002380070438
:1001E400C246F3A606800100010073370780137727
:1001F40087083ACA010001002380B7042380C7049A
:10020400010001003727004093062005A303D7808F
:1002140023800704D247F3A707800100010081B7B8
:1002240073370780137787083ACC010001002380D5
:10023400B7042380C7040100010098471367070C23
:1002440098C723800704E247F3A707800100010051
:1002540039B70111814601468145114506CE7D2AF3
:1002640093078008F3B7078093F787083EC6010019
:100274000100B7170040130770052380E704130734
:1002840080FA2380E7040100010003C767041367B1
:1002940017002383E70423800704B247F3A70780EA
:1002A40001000100F240056182804111814601464E
:1002B40081451145A52213078008F337078093F77A
:1002C40087083EC401000100B717004013067005FB
:1002D4002380C704930680FA2380D7040100010019
:1002E400FD552396B70223800704A245F3A5058094
:1002F4000100010073370780137787083AC60100AD
:1003040001002380C7042380D7040100010003C730
:100314006704136717002383E70423800704B247A5
:10032400F3A707800100010001A09317450033855E
:10033400A74001007D1575FD828015C1411122C4BD
:1003440026C206C6AA8401440504420441809133AE
:10035400E39C84FEB2402244924441018280828024
:100364002303048015472303E48001002302A480AF
:10037400828083076480E3CE07FE230304808280A7
:1003840083076480E3CE07FE0345448082808307AD
:100394006480E3CE07FE2302A4808280411126C438
:1003A4004AC24EC006C61377F50BAD47AA892E89FB
:1003B40095446306F70019456537653F8D444E85BE
:1003C4004537FD59FD1463983401B240A2441249E3
:1003D400824941018280135509011375F50F453F88
:1003E4002209CDB7011126CC06CEB7040800513737
:1003F4001545BD37713769372AC6A53F324593770E
:10040400150089EB136515001375F50FF240E244EE
:1004140005618280FD14E9FC0145CDBF397126DCFC
:100424004ADA4ED852D656D45AD25ED006DE62CEBE
:1004340066CCB7E700E07D5783AA070022C603AA6B
:10044400470023A0E71823A2E718B71700401307B3
:1004540070052380E704130780FA2380E70483C729
:100464004704930B75FFB684E20793FBFB0F8546A5
:10047400AA892E8B328937240040E187015763FA19
:1004840076016308D5008946130700026313D5007B
:100494000157D98F93F7F70FB71C00402382FC0450
:1004A40011472303E4801305F00F5D3D094CD1355A
:1004B400636D7C11B7050700DA9537870700795516
:1004C40063F2E504B3879500636EF702370B080007
:1004D400A94733EB65016399F90689E48144513DE9
:1004E40026850DA0DA850945553D05090345F9FF23
:1004F400FD14050B693D81C49377FB0FFDF7DD35D2
:1005040069FD7D55B7170040130770052380E70484
:10051400130780FA2380E70403C74704418B23822F
:10052400E704F250B7E700E023A0571123A24711D4
:10053400E25432445259C259325AA25A125B825B73
:10054400724CE24C21618280A5476395F906856966
:100554001309F00FB3069900B3742B01B694134931
:10056400F9FFB3749900856B33796901416B938703
:10057400F9FFB3F7270199E363FC340193D94900E8
:10058400C147E3E637FF99BF0569C1697D19D9B74A
:100594001305800D638869011305000263847901E2
:1005A40013051008CA85DD3B353D21DD4E99B38422
:1005B4003441D9B7DA852D45D533CA94E30099F28D
:1005C40005097D3BA30FA9FED5BF9387F9FF93F7D8
:1005D400F70F6361FC0C83C71C0413073008631F07
:1005E400F70437070800636BEB04B3079B00B706F7
:1005F400100063F5D704334BEB0089476393F90686
:100604008980D549E38C04ECDA850945413B11091D
:100614000327C9FF91472320E48003076480E34E46
:1006240007FE23033481FD17EDFBFD14110B81C478
:100634009377FB0FE9FF7D3371F5E1B5B717004000
:1006440003C75704B70708001377070219E3B787EE
:1006540007007955E378FBEA33079B00E3FFE7F8EB
:1006640055B58547E382F9F2DA852D45053B938933
:10067400F4FFE38504E6293393F7390091EB8326ED
:1006840004800327090093074900E39AE6E43E89BE
:10069400CE84F1BFB5476396F9001305900BC931B9
:1006A40035BDB1471305B00AE38BF9FE9947639151
:1006B400F904B7050800B365BB002D45C531814475
:1006C4008D4BA149753963967401832704802320D7
:1006D400F9008504E39834FF8327048013172B0162
:1006E400635507002312F900D5BB2322F900FDB39B
:1006F4009D476399F90281451305B0044531BD4412
:100704002320090023220900FD599D3993F7740021
:10071400CA9703C70700FD14398D2380A700E39609
:1007240034FF6DBBA1476392F9046D398144630DB5
:100734000B008D479304C0036308FB00930400057A
:1007440063048B01930440041375C507E30895D82B
:100754001945393139390545213126850D39094580
:100764003D314931E31C05D669BB91476399F900D2
:1007740013056006F536F53E130590090DB7E38FB2
:0807840009D4F154A9BB0000E7
:10079000971100209381018D1761002013018106BC
:1007A00013054000970500209385C5851706002096
:1007B0001306C6FD63FAC5008322050023A0550079
:1007C00011059105E3EAC5FE176500001305050E46
:1007D00097050020938505031386818063FAC50081
:1007E0008322050023A0550011059105E3EAC5FE0B
:1007F000138581809385C18B6377B5002320050025
:100800001105E36DB5FEFD42739002BC8D427390FD
:100810004280930280087390023097F2FF1F938208
:10082000627E93E2320073905230971200009382FE
:10083000C2FC73901234730020303D432A876373E7
:10084000C3029377F700BDEFADE5937606FF3D8ACF
:10085000BA960CC34CC30CC74CC74107E36BD7FE19
:1008600011E28280B306C3408A0697020000969682
:100870006780A6002307B700A306B7002306B700CA
:10088000A305B7002305B700A304B7002304B700EE
:10089000A303B7002303B700A302B7002302B700E6
:1008A000A301B7002301B700A300B7002300B700DE
:1008B000828093F5F50F93968500D58D939605016B
:1008C000D58D61B793962700970200009696868291
:1008D000E78086FA9680C1171D8F3E96E374C3F8B1
:1008E000A5B7938781809C43411106C622C4E38C3F
:1008F000071E054537040300EF1000650504228537
:10090000EF10606B6DDD814513058007370407002C
:10091000EF10E068130424082285EF10C0696DDD34
:10092000014537040700EF10E066130444082285F0
:10093000EF1060686DDD1305E00A37040700EF1063
:100940006065130444082285EF10E0666DDD0545FF
:10095000EF10E061054537040300EF10E05E050489
:100960002285EF1040656DDD814513058007370452
:100970000700EF10C062130424082285EF10A06363
:100980006DDD014537040700EF10C0601304440813
:100990002285EF1040626DDD1305500D370407000E
:1009A000EF10405F130444082285EF10C0606DDD36
:1009B0000545EF10C05B054537040300EF10C05834
:1009C00005042285EF10205F6DDD8145130580074A
:1009D00037040700EF10A05C130424082285EF10F1
:1009E000805D6DDD014537040700EF10A05A130448
:1009F00044082285EF10205C6DDD130500083704E4
:100A00000700EF102059130444082285EF10A05A64
:100A10006DDD0545EF10A055054537040300EF10C7
:100A2000A05205042285EF1000596DDD81451305A4
:100A3000800737040700EF1080561304240822852E
:100A4000EF1060576DDD014537040700EF1080544B
:100A5000130444082285EF1000566DDD1305800A4B
:100A600037040700EF100053130444082285EF10E9
:100A700080546DDD0545EF10804F054537040300B8
:100A8000EF10804C05042285EF10E0526DDD8145AA
:100A90001305800737040700EF1060501304240883
:100AA0002285EF1040516DDD014537040700EF103E
:100AB000604E130444082285EF10E04F6DDD7D4544
:100AC00037040700EF10004D130444082285EF108F
:100AD000804E6DDD0545EF10804905453704030064
:100AE000EF10804605042285EF10E04C6DDD814556
:100AF0001305800737040700EF10604A1304240829
:100B00002285EF10404B6DDD014537040700EF10E3
:100B10006048130444082285EF10E0496DDD130599
:100B2000300D37040700EF10E04613044408228517
:100B3000EF1060486DDD0545EF1060430545370453
:100B40000300EF10604005042285EF10C0466DDD04
:100B500081451305800737040700EF104044130454
:100B600024082285EF1020456DDD0145370407007C
:100B7000EF104042130444082285EF10C0436DDD9E
:100B8000014537040700EF10E040130444082285B4
:100B9000EF1060426DDD0545EF10603D05453704FF
:100BA0000300EF10603A05042285EF10C0406DDDB0
:100BB00081451305800737040700EF10403E1304FA
:100BC00024082285EF10203F6DDD01453704070022
:100BD000EF10403C130444082285EF10C03D6DDD4A
:100BE0001305000437040700EF10C03A130444084B
:100BF0002285EF10403C6DDD0545EF10403705457F
:100C000037040300EF10403405042285EF10A03AAA
:100C10006DDD81451305800737040700EF1020388C
:100C2000130424082285EF1000396DDD01453704D7
:100C30000700EF102036130444082285EF10A03778
:100C40006DDD1305D00837040700EF10A03413043E
:100C500044082285EF1020366DDD0545EF10203168
:100C6000054537040300EF10202E05042285EF1000
:100C700080346DDD81451305800737040700EF10D0
:100C80000032130424082285EF10E0326DDD0145A7
:100C900037040700EF100030130444082285EF10DA
:100CA00080316DDD514537040700EF10A02E13048D
:100CB00044082285EF1020306DDD0545EF10202B14
:100CC000054537040300EF10202805042285EF10A6
:100CD000802E6DDD81451305800737040700EF1076
:100CE000002C130424082285EF10E02C6DDD014553
:100CF00037040700EF10002A130444082285EF1080
:100D0000802B6DDD1305000237040700EF108028EB
:100D1000130444082285EF10002A6DDD0545EF100D
:100D20000025054537040300EF1000220504228545
:100D3000EF1060286DDD814513058007370407003B
:100D4000EF10E025130424082285EF10C0266DDD86
:100D5000014537040700EF10E023130444082285FF
:100D6000EF1060256DDD014537040700EF1080228C
:100D7000130444082285EF1000246DDD0545EF10B3
:100D8000001F054537040300EF10001C05042285F1
:100D9000EF1060226DDD81451305800737040700E1
:100DA000EF10E01F130424082285EF10C0206DDD32
:100DB000014537040700EF10E01D130444082285A5
:100DC000EF10601F6DDD1305100A37040700EF10E8
:100DD000601C130444082285EF10E01D6DDD0545FD
:100DE000EF10E018054537040300EF10E015050487
:100DF0002285EF10401C6DDD814513058007370407
:100E00000700EF10C019130424082285EF10A01A60
:100E10006DDD014537040700EF10C01713044408C7
:100E20002285EF1040196DDD1305800C3704070093
:100E3000EF104016130444082285EF10C0176DDD33
:100E40000545EF10C012054537040300EF10C00F31
:100E500005042285EF1020166DDD814513058007FE
:100E600037040700EF10A013130424082285EF10A5
:100E700080146DDD014537040700EF10A011130445
:100E800044082285EF1020136DDD1305A00D3704F3
:100E90000700EF102010130444082285EF10A01162
:100EA0006DDD0545EF10A00C054537040300EF107C
:100EB000A00905042285EF1000106DDD81451305A2
:100EC000800737040700EF10800D130424082285E3
:100ED000EF10600E6DDD014537040700EF10800B49
:100EE000130444082285EF10000D6DDD0945370419
:100EF0000700EF10200A130444082285EF10A00B0E
:100F00006DDD0545EF10A006054537040300EF1021
:100F1000A00305042285EF10000A6DDD814513054D
:100F2000800737040700EF10800713042408228588
:100F3000EF1060086DDD014537040700EF108005F4
:100F4000130444082285EF1000076DDD1305100817
:100F500037040700EF100004130444082285EF1043
:100F600080056DDD0545EF10800005453704030061
:100F7000EF00907D05042285EF10E0036DDD8145D3
:100F80001305800737040700EF10600113042408DD
:100F90002285EF1040026DDD014537040700EF00A8
:100FA000707F130444082285EF10E0006DDD130507
:100FB000F00837040700EF00F07D13044408228591
:100FC000EF00707F6DDD0545EF00707A0545370451
:100FD0000300EF00707705042285EF00D07D6DDD02
:100FE00081451305800737040700EF00507B130489
:100FF00024082285EF00307C6DDD014537040700B1
:10100000EF005079130444082285EF00D07A6DDD9B
:101010001305900D37040700EF00D0771304440840
:101020002285EF0050796DDD0545EF0050740545D0
:1010300037040300EF00507105042285EF00B077FC
:101040006DDD81451305800737040700EF0030751B
:10105000130424082285EF0010766DDD0145370466
:101060000700EF003073130444082285EF00B074CA
:101070006DDD1305100F37040700EF00B071130486
:1010800044082285EF0030736DDD0545EF00306EBA
:10109000054537040300EF00306B05042285EF009F
:1010A00090716DDD81451305800737040700EF005F
:1010B000106F130424082285EF00F06F6DDD0145E9
:1010C00037040700EF00106D130444082285EF0079
:1010D000906E6DDD1305B00D37040700EF00906BC7
:1010E000130444082285EF00106D6DDD0545EF0007
:1010F0001068054537040300EF00106505042285DC
:10110000EF00706B6DDD8145130580073704070024
:10111000EF00F068130424082285EF00D0696DDD2C
:10112000014537040700EF00F066130444082285E8
:10113000EF0070686DDD1305000437040700EF0051
:101140007065130444082285EF00F0666DDD0545E7
:10115000EF00F061054537040300EF00F05E050481
:101160002285EF0050656DDD81451305800737044A
:101170000700EF00D062130424082285EF00B0635B
:101180006DDD014537040700EF00D060130444080B
:101190002285EF0050626DDD1305400A3704070019
:1011A000EF00505F130444082285EF00D0606DDD2E
:1011B0000545EF00D05B054537040300EF00D0582C
:1011C00005042285EF00305F6DDD81451305800742
:1011D00037040700EF00B05C130424082285EF00F9
:1011E000905D6DDD014537040700EF00B05A130430
:1011F00044082285EF00305C6DDD1305600A37047A
:101200000700EF003059130444082285EF00B05A5C
:101210006DDD0545EF00B055054537040300EF00CF
:10122000B05205042285EF0010596DDD814513058C
:10123000800737040700EF00905613042408228526
:10124000EF0070576DDD014537040700EF00905443
:10125000130444082285EF0010566DDD1305E002EB
:1012600037040700EF001053130444082285EF00F1
:1012700090546DDD0545EF00904F054537040300A0
:10128000EF00904C05042285EF00F0526DDD8145A2
:101290001305800737040700EF007050130424087B
:1012A0002285EF0050516DDD014537040700EF0046
:1012B000704E130444082285EF00F04F6DDD1305D6
:1012C000F00A37040700EF00F04C130444082285AD
:1012D000EF00704E6DDD0545EF0070490145B240ED
:1012E00022444101828013050020EF40B05723A41F
:1012F000A180631005E00545DDB7797126D24ECE99
:10130000B7040700B709030052CC56CA5AC85EC6D4
:1013100062C4138A240806D622D44AD0930B000B49
:10132000930A0008138B8180850993844408130C69
:1013300000280545EF0050414E85EF00D0476DDD98
:10134000814513058007EF0090455285EF00B046B8
:101350006DDD0145EF0010442685EF00D0456DDDC1
:101360005E85EF0030432685EF00F0446DDD0545D6
:10137000EF00F03F0545EF00303D4E85EF00B043F4
:101380006DDD814513058007EF0070415285EF0048
:1013900090426DDD0145EF00F03F2685EF00B04142
:1013A0006DDD0145EF00103F2685EF00D0406DDD7B
:1013B0000545EF00D03B0545EF0010394E85EF00A5
:1013C000903F6DDD814513058007EF00503D52854C
:1013D000EF00703E6DDD0145EF00D03B2685EF004C
:1013E000903D6DDD4145EF00F03A2685EF00B03CC1
:1013F0006DDD0545EF00B03713840AF883270B0035
:101400000545A29703C90700EF0010344E85EF0091
:10141000903A6DDD814513058007EF005038528505
:10142000EF0070396DDD13050004EF00B03626853E
:10143000EF0070386DDD4A85EF00D0352685EF006E
:1014400090376DDD05040545EF007032E3988AFAA8
:10145000850B938A0A0893FBFB0FE39C8AEDB2503D
:10146000225492540259F249624AD24A424BB24B38
:10147000224C456182804111B30EA640B383B64031
:1014800093D7FE4113D7F34126C44AC2B3A4D50073
:101490003329C50013888180B3CED7013309204199
:1014A000B3437700B3049040832F0800B383E34035
:1014B000B38EFE40137929008988131E850122C648
:1014C0007D19B3027040FD14B3887E40135E8E41D7
:1014D0007D44054F13F8F50F135738001E07937717
:1014E000F50FBA971377780013931800FE97331708
:1014F000EF00634A0E006368040103C80700336706
:1015000007012380E7006300C502634B53004A953F
:10151000131E8501B3887840135E8E41E3CC6EFACA
:10152000F698A69545BFE392D5FE3244A2441249EF
:10153000410182801971A2DCA6DACED63ADC3EDE09
:1015400086DECAD8D2D4D6D2DAD0DECEE2CCE6CA93
:10155000EAC8EEC6AE843284B689975700009387F6
:1015600067E013878185975800009388A8E503A852
:101570000700CC439047D447232007014CC310C732
:1015800054C7C1074107E39417FF23AC018023AE82
:10159000018023A0018223A20182EF40F0032A8A66
:1015A000AE8AEF00703FEF40F00DD685AA8D5285D0
:1015B000EF003047EF40100D2AC82685EF40D001DC
:1015C0002A8AAE8AEF00503DEF40D00B2A8DD68597
:1015D0005285EF001045EF40F00AAA8C2285EF40BB
:1015E000A07F2A84AE84EF00303BEF40B009A6858F
:1015F0002A8C2285EF00F042EF40D0089757000078
:101600009387C7CF9843D44397570000938707CE5B
:1016100003A847009C431389818142CE3ECC975753
:101620000000938727CD03A847009C432ACA3AD4D9
:1016300036D63ED042D213848185CA843AD836DA6F
:101640000C404E853104EF40E004832584FF2A8B53
:101650004E85EF4020048325C4FFAA8B4E85EF40C2
:101660006003AA8AEE855E85EF40C002C2452A8AE1
:101670005685EF402002AA855285EF40E02AC245F8
:101680002A8A5E85EF400001AA8BEE855685EF40E1
:101690006000AA855E85EF303038AA8BEA855A85CE
:1016A000EF30507FAA8ADE856685EF30B07EAA854E
:1016B0005685EF307036AA8ADE856A85EF30907DD8
:1016C000AA8BE6855A85EF30F07CAA855E85EF40CF
:1016D000A025D685232EA4FE2AC46285EF30907BF8
:1016E000D24B2A8BD2855E85EF30D07AAA855A8577
:1016F000EF4080232A8BD6855E85EF30B079AA8AA9
:10170000D2856285EF301079AA855685EF30D030CA
:10171000A247AA8B232CA4FE232A64FF3E85EF4018
:10172000A06B6246F246A104EF2040022A86AE86F4
:1017300002559255EF2080742256B2562A8AAE8AFC
:10174000EF2090602AC45A852EC6EF40E0682247F9
:10175000B2472A86AE863A85BE85EF20F05EEF302E
:10176000101EE257130505043E9523ACA4FE5E85CA
:10177000EF4080665286D686EF20105D4256D256E4
:10178000EF20905CEF30B01BF25741053E9523AE41
:10179000A4FE9387818BE315F4EA938781808843C5
:1017A000130600208145EFF04F8917540000130401
:1017B00064B5975400009384E4BA1C405840210457
:1017C0008E070E074A97CA9754431043CC43884369
:1017D0005D31E31494FE6654F650D6544659B6591A
:1017E000265A965A065BF64B664CD64C464DB64D7D
:1017F00009616FF09FB03971054506DE22DC26DAFB
:101800004AD84ED652D456D25AD05ECE62CC66CA90
:101810006AC86EC6EF00407C1305800497F0FF1F76
:10182000E7804088C126C526B72506008147116795
:10183000930600400146938505A801458D2BEFF0E6
:101840004F8A0DC1F2506254D2544259B259225AB1
:10185000925A025BF24B624CD24C424DB24D014562
:1018600021618280EF40F01EEF40900DEF40301379
:10187000930710073365F502130585FCEF406049B7
:10188000AA84EF40D011C5473365F5026115EF40DA
:1018900040482A89EF40B0109547B367F50213849A
:1018A0001700EF40D00F0589854711E1FD5733053B
:1018B000F402EF4000462A8AEF40700E9547B36766
:1018C000F50213841700EF40900D0589854711E15B
:1018D000FD573305F402175D0000130DADAE130480
:1018E0000000175C0000130C6CAE975B0000938B3C
:1018F0006BAEEF400042975700009387E7ACAA8990
:1019000083AC070059A083250D004A85EF3070474E
:10191000635605244A85EF40A03983250C002A8BA5
:101920002685EF30704E6354A016975700009387BA
:1019300027AA8C432685EF30D0446352052626859E
:10194000EF400037AA8A975700009387A7A983AD75
:1019500007002285EE85EF30D042634E05102285C8
:10196000EE85EF30707C2A8497570000938707A894
:1019700094432285DA8756872286A285EFF09FBBA3
:10198000054597F0FF1FE780809BD2852685EF30C5
:10199000B008CE85AA844A85EF301008E6852A89EA
:1019A000EF309046E341A0F683A50B004E85EF3063
:1019B000704E83250D00AA894A85EF30903C63550F
:1019C000051A83250C002685EF301044635FA00ABA
:1019D000975700009387C79F8C432685EF30703A56
:1019E000635D051A2685EF40A02CAA8A615B668993
:1019F000975700009387479E8C435285EF3070388D
:101A0000634AA00C975700009387079D8C434E852F
:101A1000EF303037634AA00E975700009387479CFA
:101A20008C435285EF30503E634A051097570000B3
:101A30009387079B8C434E85EF30103DE35505F0AF
:101A4000EF40E07595473365F502EF40802C9757DE
:101A500000009387A7988C43EF30007C97570000D5
:101A60009387479883AD0700AA892285EE85EF30DA
:101A70005031E35605EE975700009387E7968C4365
:101A80002285EF3060792A84C5B5615B668983A5BC
:101A90000B005285930A8003EF30D03F9757000028
:101AA0009387079383AD07002A8A2685EE85EF305A
:101AB000502DEE84E35E05F2975700009387C7919F
:101AC0008C43528583240C00930A80FCEF30702BEA
:101AD000E35AA0F2EF40A06C95473365F502EF4062
:101AE0004023975700009387678FAA858843EF307C
:101AF000B063975700009387278E8C432A8A4E85C0
:101B0000EF303028E35AA0F0EF4060699547336525
:101B1000F502EF400020975700009387278CAA8595
:101B20008843EF307060975700009387678B8C4332
:101B3000AA895285EF30502DE35A05EEEF4020661A
:101B400095473365F502EF40C01C97570000938717
:101B5000E7888C43EF30406C2A8AC9BD83A50B000F
:101B60004E85EF303033AA8983250C002685EF306F
:101B7000B0296354A00497570000938767858C436E
:101B80002685EF301020635E05022685EF40401267
:101B9000AA8A214B03290D00A1BD615B668983A53B
:101BA0000B005285930A8003EF30D02E9757000028
:101BB000938707822A8A844325BD214B03290D0080
:101BC000F9B583A50B005285214BEF30B02C974718
:101BD00000009387E77F03290D00930A80032A8A78
:101BE000844339B5371700408327870C411106C657
:101BF00093E707088D45130500082324F70CE5201B
:101C0000B2404101A1A3371700408327870A8D45C1
:101C10001305001093E707102324F70A09A0914742
:101C200063E7B702174700001307877C8A05BA9558
:101C30009C41BA978287B717004003A7470B498F8B
:101C400023AAE70A03A7070A598D23A0A70A8280BF
:101C5000B717004083A6470B1347F5FF758F23AADC
:101C6000E70A03A7070A598D23A0A70A8280B7179E
:101C7000004003A7470B1345F5FF698F23AAE70A26
:101C800003A7070B698F23A8E70A03A7070A798D23
:101C900023A0A70A8280B717004083A6470B1347EB
:101CA000F5FFF98E23AAD70A83A6070B558D23A823
:101CB000A70A83A6070A758F23A0E70A8280B717B1
:101CC000004083A6470B1347F5FF558D23AAA70AAB
:101CD00083A6070BF98E23A8D70A83A6070A758F58
:101CE00023A0E70A8280914763E7B7021747000005
:101CF000130747718A05BA959C41BA978287B7172F
:101D0000004003A7470D498F23AAE70C03A7070C40
:101D1000598D23A0A70C8280B717004083A6470DDA
:101D20001347F5FF758F23AAE70C03A7070C598DFE
:101D300023A0A70C8280B717004003A7470D1345C7
:101D4000F5FF698F23AAE70C03A7070D698F23A866
:101D5000E70C03A7070C798D23A0A70C8280B71787
:101D6000004083A6470D1347F5FFF98E23AAD70C31
:101D700083A6070D558D23A8A70C83A6070C758F86
:101D800023A0E70C8280B717004083A6470D1347B6
:101D9000F5FF558D23AAA70C83A6070DF98E23A85E
:101DA000D70C83A6070C758F23A0E70C828079716E
:101DB00022D437540040035804805EC6E17B336868
:101DC0007801420826D24AD04ECE52CC56CA5AC8C2
:101DD00062C406D613580801231004818358048076
:101DE000216C1308FCFF33781801231004813A8911
:101DF0003E8AAA842E8BB289B68A392637480F00CC
:101E00001308082433580503835844806167130777
:101E1000076AC20893D8080193F808FCC20893D84F
:101E200008012312148183574480B367F800C20766
:101E3000C1832312F48083580480C20893D8080118
:101E400093F8E8FFC20893D8080123101481636651
:101E5000670B060B3355650385661387C6FF9147ED
:101E600042054181698F51E705081307F003637448
:101E700007011308F00342081358080137570040C0
:101E80002310078337560040231EF68083570680B1
:101E9000B250225493E717002310F6808355068032
:101EA000F249424BC205C18193F555BFC205C181BC
:101EB0002310B68083560680B24B224CB3E6DA007C
:101EC000C58EC206C1822310D68083578680231414
:101ED0000680835786809254D24AB367FA00B3E7EC
:101EE0002701C207C1832314F6800259624A456163
:101EF00082809387F6FFE98F85BF63960902931569
:101F00001B00DA953355B50293071C005205518129
:101F10001DE51307C0123308E8021307803E33584B
:101F2000E802050889BF93171B00DA978E07DA9736
:101F3000B357F5023165D207D183C98FD9BFB367D3
:101F40007501C207C183F1B7375700408357078037
:101F500011C593E707102310F7808280C207C18361
:101F600093F7F7EFC207C1832310F78082803757BA
:101F700000408357078011C593E707202310F7809F
:101F80008280C207C18393F7F7DFC207C1832310A2
:101F9000F7808280B75700402398A780828093778C
:101FA000E50F99C193671500C207C18337570040F9
:101FB0002318F7808280B756004003D6468103D7A6
:101FC000868193170701D18FE98FA207A1833385FB
:101FD000A740133515008280797122D43714004050
:101FE000035724028357040226D24AD09394070150
:101FF0001319070106D64ECE13590901C18031EDE0
:102000001377F9F793F7F49F4207C2074183C1831F
:1020100093068008F3B6068093F6860836C401005E
:102020000100930670052300D404930680FA230070
:10203000D404010001002311E4022310F402230060
:102040000404A247F3A7078001000100B250225404
:1020500092540259F24945618280B7F507008146E2
:102060003000B105194597E0FF1FE780603BA247AC
:1020700013972701E34C07FC93E704401367090813
:1020800093048008F3B6048093F6860836C00100F6
:1020900001009309700523003405130980FA230019
:1020A0002405010001002311E4022310F40223009F
:1020B00004048247F3A7078001000100294597E047
:1020C000FF1FE780C026F3B4048093F4840826C27F
:1020D0000100010023003405230024050100010054
:1020E0008357040293E707202310F402230004041B
:1020F0009247F3A7078001000100B2502254925486
:102100000259F24945618280B7170040884742056D
:102110004181937705049DC39377050C1307000451
:102120006386E7002165130505D08280B7479C1CB4
:10213000938707807D8933C5A7028280B757E8015E
:10214000938707807D8933C5A7028280411106C627
:10215000653F93172500AA97860737150E00B3D75A
:10216000A702A946373700409507B3D7D702C20761
:10217000C1832316F700930770F82301F7008D47FA
:10218000A301F70093070004A300F7008547230786
:10219000F700B24041018280011122CC3704008057
:1021A0009347F4FF3727E93F06CEED8F1307B71F9C
:1021B0006350F7043707F07F63CAE700AE862A86CC
:1021C000EF201004F2406244056182800A86CD202F
:1021D0000D8985476305F50289472246B246630D9E
:1021E000F5021DC5024592450547EF106012D9BFA3
:1021F000014681460523F240624405618280224601
:10220000B246024592450547EF108010A18D5DBF93
:102210000245924501237DB702459245E529A18DEE
:1022200055B7011122CC370400809347F4FF3727BC
:10223000E93F06CEED8F1307B71F635FF70237073D
:10224000F07F63CAE700AE862A86EF20607BF2400B
:102250006244056182800A86A1280D89854763064C
:10226000F50289472246B246630DF5020DC50245C7
:1022700092454D21A18DE1BF014701468146EF10F6
:102280002009F2406244056182802246B24602453E
:10229000924549216DBF024592450547EF10400721
:1022A0007DB7024592450547EF108006A18D45B7E1
:1022B0005971A2D43727E93F1394150086D6A6D2C8
:1022C000CAD0CECED2CCD6CADAC8DEC6E2C4E6C206
:1022D000EAC06EDE05801307B71F635B871437E71C
:1022E00002401307B797B289634F870697470000EC
:1022F0009387C7129043D4436356B03AEF2040709F
:10230000B727F93F9387B71F2A8AAE8A6308F41468
:102310001744000013040411104054408544EF207A
:10232000206E2A86AE8623A0A90023A2B90052857A
:10233000D685EF20E06C10405440EF20606C23A461
:10234000A90023A6B900B6502654268506599654EE
:10235000F649664AD64A464BB64B264C964C064D35
:10236000F25D65618280372739411307B71F2E89D7
:10237000635887103707F07F6354E40C135A4441C5
:10238000130AAABE93174A011D8CA285AA84EF20C6
:10239000105BEF2050612A87AE873A86BE8626857D
:1023A000A2853ACC3ECE974400009384240BEF20C4
:1023B00020659040D440EF202019AE8B2A8BEF206F
:1023C00010582A84EF20305E2A87AE872A86AE8690
:1023D0005A85DE853AD03ED2EF2080629040D440CC
:1023E000EF208016814601462AD42ED6EF204004E5
:1023F000B336800085066317052297470000938750
:10240000670E09475286CE852808C923AA84E35C53
:1024100009F203A7490083A7C900B7060080358FDA
:10242000B58F23A2E90023A6F900B304A04021BF81
:1024300008C24CC22324060023260600814421B78B
:102440002A86AE86EF20C05B23A4A90023A6B9008C
:1024500023A0A90023A2B9008144F5B59747000045
:102460009387C7FC9043D44317440000130484FCB3
:102470008544EF20E0582A8AAE8A1040544045B582
:10248000EF10200297470000938747FB9043D44307
:102490002A8AAE8AEF20400B97470000938787FA7D
:1024A0009043D443EF10802AEF207049AA84EF2094
:1024B000904F97470000938767F69043D4432A8B49
:1024C000AE8BEF2060082A86AE865285D685EF2037
:1024D0002053974700009387E7F49043D4432A8D15
:1024E000AE8C5A85DE85EF2020062A8AAE8AFD470B
:1024F0006A85E6855286D68663C79702EF204050EC
:102500009387F4FF1397270097470000938787F579
:10251000BA979C43AA8D2E8C638B870023A0A900B9
:1025200023A2B90025A0EF20A04DAA8D2E8C935791
:102530004C011358444193F7F77FB307F840C14665
:1025400063C6F60423A0B90123A289016E86E28640
:102550006A85E685EF20C04A5286D686EF20404A3B
:1025600023A4A90023A6B900E35F09DCB707008014
:1025700033CC8701BD8D23A0B90123A2890123A4F7
:10258000A90023A6B900B304904075BB974700008B
:102590009387C7E99043D4435A85DE8542C4EF1040
:1025A000B07A2A8AAE8A2A86AE866A85E685EF20C8
:1025B00020452E8C2A86AE862A842EC66A85E6851C
:1025C000EF2000445286D686EF20804397470000D4
:1025D000938747E69043D4432A8AAE8A5A85DE859C
:1025E000EF1090765286D686EF2080412A86AE86FE
:1025F0002A8AAE8A2285E285EF208040224893D73E
:10260000450193F7F77F3308F84093071003E28CF6
:10261000AA8D2E8C63CA070123A0A90023A2B900AA
:10262000228D2DB78D46D1BB97470000938707E2D7
:102630009043D4435A85DE85EF101071324C2A8ABC
:10264000AE8A2A86AE862285E285EF20603B2A8606
:10265000AE862A8DAE8C2285E285EF20603A5286C6
:10266000D686EF20E039974700009387A7DE904396
:10267000D4432A8AAE8A5A85DE85EF10F06C5286E2
:10268000D686EF20E0372A86AE862A8AAE8A6A8509
:10269000E685EF20E036AA8D2E8C23A0A90023A288
:1026A000B9006DB5EF10800AB727F93F9387B71FC0
:1026B0002A8AAE8A630EF40217440000130484D6FB
:1026C00010405440FD54EF1060082A86AE8623A0C7
:1026D000A90023A2B9005285D685EF2060321040B0
:1026E0005440EF10A00623A4A90023A6B900A1B965
:1026F00097470000938787D39043D4431744000043
:10270000130444D3FD54EF1060042A8AAE8A1040AB
:10271000544055BF39715AD0139B15004AD84ED634
:1027200062CC66CA06DE22DC26DA52D456D25ECEEF
:102730006AC86EC6135B1B00B707403E2E8CAA8C7E
:102740003289B6896355FB10EF20701F6309052697
:102750006686E2866685E285EF10105F9747000087
:102760009387C7E99043D4432A84AE84EF10D05DA9
:1027700097470000938707E99043D443EF00107D0B
:102780002286A686EF10505C97470000938707E8E3
:102790009043D443EF20C0262286A686EF10D05A5D
:1027A00097470000938707E79043D443EF00107AE0
:1027B0002286A686EF10505997470000938707E6B8
:1027C0009043D443EF20C0232286A686EF10D05733
:1027D00097470000938707E59043D443EF001077B5
:1027E0002286A686EF1050562A8AAE8A97470000A6
:1027F000938747C59043D4432285A685EF10D054D4
:102800002A8BAE8B5286D6862285A685EF10D053B2
:102810002A84AE844A86CE866685E285EF10D05241
:102820002A86AE862285A685EF20801D2A86AE8662
:102830005A85DE85EF20C01C97470000938787AB41
:102840002A86AE868843CC43EF20801B0DAA2A86B9
:10285000AE86EF10704F97470000938727DA9043BA
:10286000D4432A84AE84EF10304E974700009387FC
:1028700067D99043D443EF00706D2286A686EF108F
:10288000B04C97470000938767D89043D443EF201C
:1028900020172286A686EF10304B974700009387BB
:1028A00067D79043D443EF00706A2286A686EF1064
:1028B000B04997470000938767D69043D443EF20F1
:1028C00020142286A686EF10304897470000938791
:1028D00067D59043D443EF0070672286A686EF1039
:1028E000B046B737D33F938727332A8AAE8AE3DFD0
:1028F00067EFB707E93F63C3670B1747000013078C
:10290000679FB707E0FF08434C433E9B8147DA8649
:102910003E863E8DEF20C00EDA8DAE8B2A8B974718
:102920000000938727B29043D4432285A685EF10F9
:10293000B0416A86EE86EF20A00C2A8DAE8D5286BD
:10294000D6862285A685EF1030402A84AE844A863A
:10295000CE866685E285EF10303F2A86AE862285D8
:10296000A685EF20E0092A86AE866A85EE85EF20EF
:1029700020092A86AE865A85DE85EF206008F2504F
:102980006254D2544259B259225A925A025BF24BC3
:10299000624CD24C424DB24D21618280974700007B
:1029A0009387C7C403AB070083AB4700974700007A
:1029B000938747C403AD070083AD47008DB79747A2
:1029C0000000938727938843CC4355BF130101D55B
:1029D000232E3129B689131827003ADC3ED4174735
:1029E00000001307A7CA9387F9FF232EB127429748
:1029F0002326112A2324812A2322912A2320212BD2
:102A0000232C4129232A512923286129232671298E
:102A100023248129232291292320A129B1562AD2B6
:102A20002EDA3EC8832D0700634FD67E1307D6FFEC
:102A3000E147B347F7023ED0850713972700998FE8
:102A40008E0782559386F9FF3387DD00B297338472
:102A5000D540130917003ECA0409229963430702AF
:102A6000225A93172400D2970145814563450400FB
:102A70008843EF20407388C0CCC00504A104E31252
:102A800024FF63C40D06C24B125D1C0913993B0061
:102A900013048900139A3D003E99BC0B840B3E9AA7
:102AA0006A944A8BEA8A014C814C63C80B02032664
:102AB0000B0083264B0003A50A0083A54A00A10A48
:102AC000611BEF1070282A86AE866285E685EF00CE
:102AD000F0472A8CAE8CE39C8AFC23A0840123A2BD
:102AE0009401A1042109E39E44FB13972D00701863
:102AF000930687FF330CE600980036973AD81257B2
:102B0000139439009387FDFF3A94370700207D170F
:102B10003ACC370780007D178A073ADE981CBA97AF
:102B2000EE84130D011D3ED66ECE93973400981C93
:102B3000BA9703AA07F683AA47F663569008E247B6
:102B4000930901043389F40097470000938787B203
:102B500003A847009C430E0942C23EC097470000AD
:102B60009387C78F03A847009C436A9942C63EC417
:102B700011A03E89024692465285D685EF10D01CA0
:102B8000EF20E05BEF2020622246B2462A8BAE8B1C
:102B9000EF10901B2A86AE865285D685EF105066C0
:102BA000EF20E059032609008326490023A0A9004D
:102BB000DE855A85EF0090392A8AAE8A930789FF0D
:102BC0009109E3182DFB524BD68552855A86EF00AA
:102BD000B02297470000938767AA9043D4432A897D
:102BE000AE89EF107016EF00300C97470000938706
:102BF00067A99043D443EF1030152A86AE864A85E4
:102C0000CE85EF10F05FAE892A89EF204053AA8A63
:102C1000EF2060592A86AE864A85CE85EF10505E39
:102C20002A89AE89635760139387F4FF981C8A073B
:102C3000BA9703AA07DD614733076741B356EA40F5
:102C40003397E6003307EA405D4A330A6A4123A816
:102C5000E7DC335A4741B69A634B4011014681463F
:102C60004A85CE85EF10C07C6318051AF24713869B
:102C7000F4FF634FF600939724009800F117BA977A
:102C800001479443F117558FE39D87FF631D072884
:102C9000B25783A707DD63930728C2570547F1178B
:102CA000D4430507EDDE93871400BE8ABA944247E9
:102CB000925D62C03309F7000257330AF70062479A
:102CC0008E070A0A3A9922570E09B309FD001C091A
:102CD0003A9A3E9903250A00EF20E04CC24723248C
:102CE000A9002326B90063C90704CA8B6E8B014C67
:102CF000814C31A003A50B0083A54B00E11B0326EB
:102D00000B0083264B00210BEF1010042A86AE86A1
:102D10006285E685EF0090232A8CAE8CE31C8BFC49
:102D200023A0890123A29901850A110AA109210979
:102D3000E3D254FB024CD5BB014C814C23A089014A
:102D400023A29901850A110AA1092109E3D454F9A2
:102D5000D5B7D247639807189387F4FF8A07981C62
:102D6000BA9703AA07DD135A7A41E35940EF850A5F
:102D7000635F904A0648854763150812638EF40026
:102D8000D400054703A80600930717009106631BAC
:102D900008103E87E398F4FE52476353E0028547EC
:102DA0006307F7468947631DF7009387F4FF981C74
:102DB0008A07BA9703A707DD2A07298323A8E7DC38
:102DC0008947E31DFAE8973700009387A7528843A5
:102DD000CC434A86CE8642C0EF10904202482A89F0
:102DE000AE89E30D08E6973700009387A750884324
:102DF000CC435246EF0050002A86AE864A85CE85E7
:102E0000EF1010402A89AE89014681464A85CE8559
:102E1000EF100062E30C05E4524D4A85CE8533067F
:102E2000A041F24DEF00407D973700009387076384
:102E300003A9070083A947002A8C4A86CE86AE8C58
:102E4000EF10A0656340054617470000130787820F
:102E5000104354436285E685EF10006FEF20202E6B
:102E60009C1C139424003E94AA8BEF20C0334A8606
:102E7000CE86EF10606D2A86AE866285E685EF10FD
:102E80003038EF20C02B138B1400981C93172B00A5
:102E9000BA972328A4DC13078D013ACA23A877DD4B
:102EA00055A801470A0737060001941C36973308D6
:102EB0000641232807DD63D597028A073387F6008A
:102EC0008C0093962400032707DDAE97AE967D16FF
:102ED00011A098433307E64098C39107E39BD7FEC0
:102EE00005485DBD973700009387C7559043D4438D
:102EF000014AEF10805AE34305D6850A094AE34B9D
:102F000090E6973700009387E73E8843CC434A8694
:102F1000CE86EF10F02E2A89AE8989B393871400EC
:102F2000BE8ABE8469B3981C93172600BA9752478D
:102F300083A707DDF24D21173ACA328B81EF9397B1
:102F40002400E1179400B697F117D4437D1B211795
:102F5000E5DE3ACA973700009387C7398843CC43E8
:102F60005246EF0060692A84AE8463400B389317A1
:102F70003B003E87940BB38BE6003EC4173700003E
:102F80001307476F93172B009400B38CF6005E8CE9
:102F9000032907008329470011A0BE8C03A50C005C
:102FA000611CEF2040202286A686EF10E0592324E2
:102FB000AC002326BC002285A6854A86CE86EF106B
:102FC000A05898002A84AE849387CCFFE31797FD1E
:102FD0001C1A3EC0EE8CBE84014463C80C069737B1
:102FE00000009387A768173C0000130C2C64DE894F
:102FF0008843CC43014D814D014909A8210CA10909
:103000006347240303250C0083254C0003A6090015
:1030100083A649000509EF1020532A86AE866A85EB
:10302000EE85EF00A0722A8DAE8DE3D92CFD23A092
:10303000A40123A2B401980B0504A10493878BFF7C
:1030400063027703BE8BE3DC0CF8014D814D23A0B6
:10305000A40123A2B401980B0504A10493878BFF5C
:10306000E31277FF6257894763C7E7086343E01CB1
:1030700021E7A247024401458145B30CF40003A6B1
:103080000C0083A64C00EF00606C93878CFF630DEF
:103090009401BE8C03A60C0083A64C00EF00006BCD
:1030A00093878CFFE31794FF63050A00B70700803E
:1030B000BD8DD25688C2CCC28320C12A0324812A66
:1030C00013F57A008324412A0329012A8329C1297F
:1030D000032A8129832A4129032B0129832BC12813
:1030E000032C8128832C4128032D0128832DC127FF
:1030F0001301012B828062578D47E31FF7FA635655
:103100006021931B3B009C1CDE97930901131384E1
:103110008BFF4EC083AD07EC03AD47EC4E9411A07E
:103120003E84032C0400832C44006E86EA8662856C
:10313000E685292D2A89AE842A86AE866285E685B3
:10314000EF10100C6E86EA86112508C44CC42320AB
:10315000240144C0930784FFCA8D268DE39289FC25
:10316000854763D4671B13143B00024B9C1CBE9B1A
:10317000611403AD0BECB3048B0083AB4BEC11A0DB
:10318000BE8403AC040083AC44006A86DE8662859C
:10319000E6856D2BAA892E892A86AE866285E6850C
:1031A000EF1010066A86DE86552388C4CCC423A09F
:1031B000340123A22401938784FF4E8DCA8BE3112F
:1031C000FBFC8247210401453389870081450326A2
:1031D0000900832649006119952BE39A24FF0328EF
:1031E000011303274113032681138327C113631798
:1031F0000A0CBE88D2574283328823A06700D8C306
:1032000023A4070123A6170188CBCCCB75B59387E0
:10321000F4FF981C8A07BA9703A707DDF256758F4B
:1032200023A8E7DC71BEA15702D06FF09F8101484F
:10323000A5B60247A24701448144B30CF700A28718
:103240003A8411A0BA8C03A60C0083A64C002685F4
:10325000BE85ED2913878CFFAA84AE87E31494FF03
:103260002E8403250113832541132686A286EF10A1
:10327000207963130A06D25684C2C0C26350600329
:10328000241A05449040D4400504A104C121E35B05
:103290008BFE63050A00B7070080BD8DD25688C635
:1032A000CCC619BD9C1C139424006285E6853E940F
:1032B000EF10F0682328A4DC268B69B9B7060080DC
:1032C000358FB58FAD8ED25523A00501D8C190C5DD
:1032D000DCC588C9D4C9CDB3B70700803D8CD257AF
:1032E00084C3C0C3E34E60F97DB762578947E3C426
:1032F000E7E06349E00001458145E31F07DAE30A9F
:103300000ADA6DB381440144A9BF01458145C1BDBD
:1033100039719397150022DC26DA52D456D262CC4A
:1033200006DE4AD84ED65AD05ECE66CA6AC86EC687
:1033300085833708403E2E84AA84328AB68A3A8C26
:1033400063D70701EF10B05F2687A28761C1268689
:10335000A2862685A285EF10201F2A89AE892A869B
:10336000AE862685A285EF10201E97370000938732
:10337000E7329043D4432A8BAE8B4A85CE85EF103B
:10338000A01C973700009387E7319043D443EF1098
:1033900020674A86CE86EF10201B97370000938760
:1033A000E7309043D4435D264A86CE86EF10C0199D
:1033B00097370000938707309043D443EF10406461
:1033C0004A86CE86EF104018973700009387072F64
:1033D0009043D443A52E2A8DAE8D631A0C042A8601
:1033E000AE864A85CE85EF1020169737000093876A
:1033F000672D9043D443EF10A0605A86DE86EF100D
:10340000A0142686A28699262A87AE87F250625497
:10341000D2544259B259225A925A025BF24B624C30
:10342000D24C424DB24D3A85BE852161828097379C
:103430000000938727019043D4435285D685EF102F
:10344000A0102A8CAE8C6A86EE865A85DE85EF1037
:10345000A00F2A86AE866285E685EF10605A4A86FE
:10346000CE86EF10600E5286D686EF1060599737E1
:103470000000938727259043D4432A89AE895A8533
:10348000DE85EF10600C2A86AE864A85CE857D2CBF
:103490002A86AE862685A285EF1080562A87AE87BB
:1034A000B5B786058581828093D74541011193F791
:1034B000F77F22CC26CA4AC84EC652C406CE56C290
:1034C0005AC0938417C04D472E84AA892E892A8A10
:1034D0006348970863C40406370B1000930AFBFF88
:1034E000B3DA9A40B3F7BA00C98FAA862E879DCB6C
:1034F000973700009387871D9043D443812C014662
:103500008146EF009079635DA00063560400B354D8
:103510009B403389840093CAFAFF33795901014AE9
:10352000D2864A87F2406244D2444249B249224A92
:10353000924A024B3685BA85056182809737000032
:103540009387C7189043D443112401468146EF0066
:10355000D074E357A0FC63430406014A0149C9B78C
:1035600013073003635E970093070040AA862E87F7
:10357000E39AF4FAAE862A86D12AAA862E875DB708
:103580009387D7BEFD5AB3DAFA00B3F7AA00AA862A
:103590002E87C9DB97370000938747139043D443A6
:1035A000752201468146EF00506FE35BA0F6634051
:1035B000040293C7FAFF337AFA009DB70604058028
:1035C00033643401014A29DC3709F0BF91BFD14788
:1035D000638FF40093074003858F8544B394F40010
:1035E000A69963F94901130914004E8AD9B7130942
:1035F0001400C1B74E8A75BF411193D7454122C40B
:1036000006C626C293F7F77F2E87AA863284C1E7C3
:10361000939715008583C98FA5CB973700009387B3
:10362000670BD4439043EF003072D177938707CB79
:10363000AA862E876340F40E93D7454193F7F77F10
:103640002E869387A7FCA2979305E07F63C2F50AB5
:103650006345F00A9305B0FC63D0B706B167938762
:10366000073563C78708973700009387270780438C
:10367000C44336862285BA86A6857528A686228604
:10368000EF00906CAA862E87B24022449244368581
:10369000BA85410182801308F07F2E86E39507FBEF
:1036A000AE862A866520B2402244AA862E8792449E
:1036B0003685BA8541018280370710807D17938750
:1036C0006703798ED207173700001307A701B68565
:1036D000D18F544310432E85BE85EF00F066B24073
:1036E0002244AA862E8792443685BA85410182807B
:1036F00097370000938787FD9DBF37071080B24042
:1037000022447D17718FD2075D8F92443685BA852A
:103710004101828097370000938747FCD443904350
:10372000EF009062B2402244AA862E8792443685EA
:10373000BA8541018280370700809347F7FFF98EF1
:10374000ED8F2A87D58F3A85BE8582803708100095
:1037500001117D183377B80026CA3378D80093D486
:10376000450113D34601131E37004EC61357D5012A
:103770000E089357D60193F4F47F1373F37F06CEAC
:1037800022CC4AC893D9F50193DEF6013367C7010D
:10379000131F350033E80701931F3600338E644052
:1037A0006380D9196356C0136304031CB7068000F5
:1037B0009307F07F3368D800638FF4369307800354
:1037C00063C0C735FD4763CDC74713050002330506
:1037D000C541B3D7CF01B316A8003399AF00DD8E32
:1037E00033392001B357C80133E926011D8F33094E
:1037F0002F41B3372F013306F7409317860063D468
:103800000724370780007D173374E600630C042C0F
:103810002285EF20C07D130785FF93070002998F53
:10382000B357F9003316E400D18F3319E90063412F
:10383000972A33059740130615007D47634DC73817
:1038400013070002118FB356C9003319E9003397EB
:10385000E700558F333920013369270133D6C7007C
:1038600081449377790081CF1377F90091476308FA
:10387000F70013074900333927014A963A8993170D
:10388000860063D6071C138514009307F07FCE854E
:103890006304F520B70780FFFD17F18F9398D701D8
:1038A00013593900A607B3E82801B1831375F57FD2
:1038B0009396C7005205F2406244B182FE05C98E5C
:1038C000CD8ED2444249B2494685B6850561828093
:1038D000631E0E0A138314001373E37F631703221E
:1038E000B367E701B368F801639D041A6387074073
:1038F000638608443309FF41B307074133362F017C
:103900003386C7409317860063D6074C3389EF414F
:10391000B307E84033B62F013386C740F68991B725
:103920006350C00F6300030CB70680009307F07F5D
:103930003368D800638AF43A9307800363CBC713D4
:10394000FD4763DFC73513090EFE93070002B35628
:103950002801630AFE00130900043309C941331921
:103960002801B3EF2F013339F0013369D90031A2B7
:10397000B367F801638A071C9307FEFF638C07385F
:103980009306F07F6309DE1A3E8E0DBDB3059340AA
:1039900063910422B367E701638707329387F5FFDA
:1039A000638107449306F07F638CD520BE8593071F
:1039B000800363CCB72AFD4763CFB73C930700026F
:1039C0008D8F3319F700B356BF00B317FF0033696B
:1039D000D900B337F0003357B7003369F900330823
:1039E000E84041ACB367F801638007349307FEFFFA
:1039F000638A07209306F07F6308DE2E3E8E2DBF7C
:103A0000631E0E149386140093F7E67F63910734C8
:103A1000B367E7016395042C6380073EB367F80141
:103A2000638E07303309FF01B3070701333FE90114
:103A30003386E7019317860063D70700B70780FF37
:103A4000FD177D8E854493777900E39F07E09317F8
:103A5000D60193583900B3E8F8009357360013079E
:103A6000F07F638DE404B207B18313F5F47FCE8554
:103A700081B53369F801333920017A99B337E90107
:103A80003386E70093178600E3DF07FA8504930780
:103A9000F07F6396F418CE851305F07F8147814847
:103AA00001BDC1EB6384083A931636009317D80121
:103AB0008D82B3E8D700F68993573800B3E7F80052
:103AC000F9DB81451305F07FB70708008148CDB3C6
:103AD000370680FF7D167D8E93777900998CE3956C
:103AE00007D8B5B74A85EF20805013078501FD47F9
:103AF000E3D5E7D2130685FFB317C900014905BB1B
:103B00003369F80133392001DDB13309FF41330650
:103B1000074133342F01330486409317840063CD6B
:103B20000724B3688900E39308CE81478149814423
:103B30001DBFE39808F80E059317D7010D81B3E870
:103B4000A700935737009DBF0E059317D7010D812E
:103B5000B3E8A700F2849357370011B733059340B9
:103B600063820412B70680009307F07F558F630DC0
:103B7000F32E9307800363CBA720FD4763C3A72AD7
:103B800093070002898F3319F700B356AF00B317BC
:103B9000FF003369D900B337F0003357A70033690A
:103BA000F9003A987E99B337F901338607019A8470
:103BB000D1BDB70680009307F07F558FE319F3DE80
:103BC000931736008D839318D801B3E81701F6894F
:103BD00093573800E5B5130715FE9306000233D757
:103BE000E700630AD600930600043386C640339686
:103BF000C7003369C900333920013369E900014640
:103C0000814491B53309FF01B30707013336E90158
:103C10003E96931786008544E3D707E28944B707A9
:103C200080FFFD17F18F13571900137919003369BD
:103C300027019398F70133E9280113D6170015B12E
:103C400013090EFE93070002B3562801630AFE0013
:103C5000130900043309C94133192801B3EF2F01B7
:103C60003339F0013369D90059B63369E701333983
:103C7000200133892F41B3B72F013306F8409A84CE
:103C8000F689A5BEB367E701638207189307F5FFBE
:103C90006384071C9306F07F6304D5123E85D1BD73
:103CA00093070002B387C741B316F8003399FF00AA
:103CB00033D6CF01D18E33392001B357C80133E950
:103CC00026013E975DBB931736008D839318D8016C
:103CD000B3E81701AE8493573800F68949B3EDC3B2
:103CE0003369F801E31F09DC0E059317D7010D8135
:103CF000B368F50093573700D1B36381080E93166C
:103D000036009317D8018D82B3E8D700F689935710
:103D1000380091BB3309FF41B3070741333F2F01FF
:103D20003386E7418544D1BC0E059317D7010D8139
:103D3000B368F500F2849357370015B30E05931757
:103D4000D7010D81B3E8A7009357370029BB93072C
:103D5000F07FE382F6D43309FF013336E901B3077C
:103D60000701B2979398F7011359190033E9280115
:103D700013D61700B684C1B93389EF413307E84041
:103D800033B62F013304C740F68949B43369E701DC
:103D90003339200101BD938705FE93060002B35716
:103DA000F700638AD50093060004B385B640331745
:103DB000B700336FEF003339E0013369F90055BDC7
:103DC000931736008D839318D801B3E817019357E2
:103DD0003800EDB1B368C900E39708C6814781494F
:103DE00059B13389EF41B307E84033B62F01338629
:103DF000C740F689854411B4931636009317D8014D
:103E00008D82B3E8D70093573800B1B993163600C6
:103E10009317D8018D82B3E8D700AA84935738004E
:103E20003DB9930705FE93060002B357F700630AF6
:103E3000D500930600043385A6403317A700336FDF
:103E4000EF003339E0013369F900A9BB814513055F
:103E5000F07FB7070800A9BC3309FF01B3070701CA
:103E60003336F9013E9675B3931636009317D80191
:103E70008D82B3E8D7009357380089B1397193D751
:103E8000450122DC4AD856D22A891394C50006DEA1
:103E900026DA4ED652D45AD05ECE13F5F77F318053
:103EA00093DAF501630B05109307F07F630BF514AC
:103EB000135AD9010E0433648A00370A8000336A2A
:103EC0004401131B3900930415C00144814B13D8DE
:103ED00046011399C6001378F87FB2881359C900B8
:103EE00093D9F601630E08089307F07F6300F80486
:103EF0001357D6010E0933692701130818C0B707F5
:103F000080003367F90093183600B384044181457B
:103F1000BD4733C83A0163E4871A972700009387A7
:103F2000E77C0A043E9410403E9602863367C9003F
:103F30009384148063120710136424008148894518
:103F4000C1BF1306F07F81470147B207F2506254A8
:103F50005206B1837E08D18FB3E70701D25442598C
:103F6000B259225A925A025BF24B3A85BE852161C0
:103F7000828001481306F07FB70708000147F1B7B8
:103F80003367C9004DC7630809304A8532C4EF2042
:103F900000062246130755FFF547930685FF998FC4
:103FA0003319D900B357F60033E72701B318D60009
:103FB00026959304353F8145A1BF336A24016303ED
:103FC0000A0636C632C46306042A2285EF20200280
:103FD0002246B246AA84130755FF754A138B84FF05
:103FE000330AEA4033146401335A4901336A8A00C0
:103FF000331B69011305D0C0B30495400144814BC4
:10400000F9B5336A240163180A002144014B930473
:10401000F07F894B6DBD228A4A8B31449304F07F37
:104020008D4B75B51144014B8144854B4DB51364DF
:10403000140081488545E9BD136434004A878D45E5
:10404000C1BD630A052E8547898F9306800363DD12
:10405000F632014681470147CDBDCE868947638D43
:10406000F53A8D47E387F5F085473688E383F5FE1B
:104070001385F43FE357A0FC93F778006396072875
:1040800093D638009317770063D80700B70700FF6F
:10409000FD177D8F138504409307E07FE3C3A7EAF4
:1040A0001316D70193179700B1833367D6001376A1
:1040B000F57F61BDD6865287DA88DE8545B76361B4
:1040C0004723630DEA20DA86FD145284014B9317CF
:1040D000870013D388013363F300935E0301B35762
:1040E000D403131F0301135F0F0193D50601139E21
:1040F00088003374D4033307FF024204C18D63FB8D
:10410000E5009A951386F7FF63EE652663FCE526C6
:10411000F9179A95998D33D7D503C206C182B3F5A5
:10412000D5033306EF02C205D58D63FBC5009A9512
:104130009306F7FF63E6652463F4C52479179A951F
:10414000C20741645D8F9307F4FF3375F7009358FE
:104150000701935F0E01B377FE00B302F502B38649
:10416000C540B383F80293D502013386AF021E9691
:104170002E963385F803637376002295C168FD1887
:1041800093550601337616014206B3F81201AA953B
:10419000469663E6B6126382B6123306CB408D8E26
:1041A000333BCB00338B66411385F43F630C6317BD
:1041B000B358DB0393550601337BDB03B3061F03C0
:1041C000420B33EB6501637BDB001A9B9385F8FFA1
:1041D000636D6B20637BDB20F9181A9B330BDB408C
:1041E000B356DB0342064182337BDB03330FDF022E
:1041F000420B33666601637BE6011A969385F6FFF0
:104200006367661E6375E61FF9161A96C208B3E85F
:10421000D8009395080193D20801C181B38EF502AD
:104220003306E641B385BF0293D60E01B387F2028F
:10423000BE95AE96B38F5F0263F4F600C167BE9F72
:10424000C165FD1593D70601ED8EC206B3FEBE0013
:10425000BE9FF696637FF6091A969387F8FF636907
:10426000661A6368F619630FF61BBE8893E8180098
:1042700011B54A85EF10B05713075501F145930466
:1042800005022246B246E3DAE5D4130485FF331A69
:104290008900014B85B3328532C4EF1050551307A6
:1042A0005501F146AA87224613050502E3D6E6CE5C
:1042B000E1173317F6008148E5B9E370CBEE729B46
:1042C0003335CB011A95AA961305F7FF6378D3020D
:1042D00063E6B6106382D5102A87C1B5E3651BDF9C
:1042E00093551B009316FA0113541A00CD8E7E0BC2
:1042F000F9BBE31DF6F7E38F06D6B9BFE31ED3FC87
:10430000E378CBFD2A8751BD93F7F8009146E38906
:10431000D7D693B7C8FF9386480093C717008D82FE
:104320003E978DB381468547E34CA0FEFD58E31CC4
:1043300005D0930410C085471385E441B316A70048
:1043400033D6F8003395A800D18E3335A000C98E3E
:1043500013F676003357F70001CE93F7F6001146B7
:104360006388C70093874600B3B6D7003697BE86EA
:104370009317870063D80704054681470147F1B6C4
:1043800036877DBBB28779B3FD46E3D7F6FA05568B
:10439000098E930600023356C7006388D7009387BF
:1043A000E443B317F700B3E8F800B3361001D18E39
:1043B00013F67600814701CE93F7F60011460147C8
:1043C000E392C7FA931797001316D701B18313D757
:1043D0003600518F014695BEE370CBF0729B3335AA
:1043E000CB011A957917AA964DBBAE88C5BBAE8690
:1043F00031BD93171E0033BEC70172931A96F91888
:104400003E8EE315F6E7E307DEC693E818009DB19C
:10441000BE88E30AF6FF99BD36881306F07F814710
:10442000014725B6E367DEFCBE88E310DEFE99B1E6
:1044300013D74501B7071000FD1713D846011377AE
:10444000F77F9308F07F33FEB700AA8EF58FFD81CA
:10445000328F1378F87FFD82630B170105436306E3
:10446000180163140701630DFE001A858280B3688A
:10447000AE000543E39B08FEE319E8FED18FF5F794
:104480000543E394EEFF0143E381D5FE054371FF4D
:104490003365AE003333A000C9BF13D74501B7075A
:1044A0001000FD1713D846011377F77F9308F07FAC
:1044B00033F3B7002A8EF58FFD81B28E1378F87F23
:1044C000FD8263081703630018030DEBB368A300B4
:1044D000631408005D8E29CA638508046388D502C9
:1044E000054595ED8280B3E8C700E38008FE795565
:1044F00082803365A30065FD630CE8026314080045
:104500005D8E79DEE39ED5FCE34CE8FC6348070151
:10451000E3E867FC6303F302637FF30081E57D5505
:104520008280F5DE054582800145E39B08FA8280A2
:104530005D8E69DA6DBF01458280E3E3CEFB014504
:10454000E372DEFBE5F1E1BF39714AD813D94501C9
:104550004ED652D456D29399C50006DE22DC26DA16
:104560005AD05ECE1379F97F2A8A93D9C90093DA9B
:10457000F501630D090E9307F07F6306F9181354D4
:10458000D5018E09B36934013704800033E4890012
:1045900093143500130919C08149814B13D7460183
:1045A000139AC6001377F77FB285135ACA0013DB3C
:1045B000F601630B07109307F07F6303F70493572B
:1045C000D6010E0A33EA4701130717C0B707800068
:1045D000B367FA00931536003A99814833C76A01E8
:1045E000BD463A851308190063E836171726000000
:1045F0001306C6138A09B29983A60900B296828669
:10460000B367CA001309F97F6399071293E9290078
:1046100081458948E1B701479307F07F37040800D7
:1046200081443204D20731807E075D8C598CA2858B
:10463000F250625426854259D254B259225A925AA3
:10464000025BF24B216182805A853E84AE84C68B28
:104650008947638DFB0E8D47E38FFBFA85472A87D9
:10466000639EFB3881470144814465BF33E4A90060
:1046700061C036C632C4638C092A4E85EF103017EC
:104680002246B246AA87130755FF7544938487FFD5
:10469000198CB399990033548A0033643401B314EC
:1046A0009A0013D746011309D0C0139AC600137796
:1046B000F77F3309F9408149814BB285135ACA000B
:1046C00013DBF601E31907EEB367CA00B1C7630F46
:1046D0000A22528532C4EF10901122462A8793068F
:1046E00055FFF547930587FF958F331ABA00B357E7
:1046F000F600B3E74701B315B6003309E9401309E3
:10470000D9C08148E1BD33E4A90001ECA14981444D
:104710001309F07F894B59B593E919008145854804
:1047200075BD4E84AA84B1491309F07F8D4BBDB588
:10473000914981440149854B95B593E93900D28768
:104740008D4869BD89475685E397FBF02A87930713
:10475000F07F01448144F1B5C16E1386FEFF93D60C
:10476000040113DE0501F18CF18D3386950233834C
:10477000B6029358060133059E021A95AA98B38291
:10478000C60363F36800F692C16F1383FFFF33F52E
:10479000670093D30701B3F76800C207337366005D
:1047A0003E933306950293D80801B387A602135FA0
:1047B0000601B3849302BE94FA94B38E760263F337
:1047C000F400FE9E416A9307FAFF935F0401B376FB
:1047D000F400B3F9F4007D8EC1803384D502C209A0
:1047E000338FD401B299CE98B307DE02935E0401F1
:1047F000B385BF02AE97BE9E330EFE0363F3BE00C9
:10480000529EC1679385F7FF33F6BE006D8C42065A
:10481000229693DE0E01B305D502769E3385AF0254
:1048200013D40501B386D302AA96A296B38FF303DD
:1048300063F3A600BE9F41657D15B3F7A600C207CE
:104840006D8DAA97B3855800B3B93501FA97B29523
:104850003384370133B6C500B30EC4013385CE00AF
:1048600033343401B3B7E701C18F33BECE0113D463
:1048700006013336C5003E943366CE00939495000E
:1048800032947E94B3E46400260493567501B334E5
:104890009000DD8193179500CD8C558CDD8C93179E
:1048A000740063DB070093D7140085889316F40126
:1048B000DD8CD58C058042899307F93F6359F00858
:1048C00093F6740081CE93F6F40011466388C60017
:1048D00093864400B3B496002694B684931674006D
:1048E00063D80600B70700FFFD177D8C93070940CA
:1048F0009306E07F63CFF60E93D634009314D40171
:104900002604D58C318093F7F77F21BB328532C4E2
:10491000EF10E06D93065501F1471307050222469B
:10492000E3D1D7DC6115B317A6008145F9B3EF10C9
:10493000006C13075501F145930705022246B24664
:10494000E3D5E5D461153314AA00814499BB8546AB
:104950009D8EB1E71309E941B3972401B3D4D40084
:1049600033192401B337F000B3649900DD8C93F759
:104970007400B356D40081CF93F7F40011466388D6
:10498000C70093874400B3B49700A696BE8493975C
:10499000860063D8070485470144814459B1130652
:1049A0008003E341D6CC7D46E356D6FA0556B307DD
:1049B000F640930500023356F4006387B6001309EE
:1049C000E943B3172401DD8CB3349000D18C93F606
:1049D0007400014499CA93F7F40011468146E392AA
:1049E000C7FA139496003180F6068D80D58C8147E6
:1049F0000DB99307F07F0144814425B142896DBD13
:104A0000370710007D1701113373B70093D84601A3
:104A1000758F935ED60122CC26CA0E0393D445012E
:104A20009357D5010E0706CE4AC84EC693F8F87FB5
:104A3000130EF07F33E7EE0093F4F47F13D4F50107
:104A400033E36700131F3500FD82931E3600638039
:104A5000C81993C61600B38514416305D412635177
:104A6000B018638B081AB70780005D8F6381C45943
:104A70009307800363C4B734FD4763C5B748930702
:104A800000028D8FB3D9BE003318F700B39EFE002D
:104A9000336838013357B700B339D0013368380170
:104AA0003303E340B3090F41B3373F013306F3400B
:104AB0009317860063D30724370980007D19337963
:104AC0002601630F092C4A85EF106052130785FFFA
:104AD00093070002998FB3D7F9003316E900D18FFD
:104AE000B399E9006344972A058F13061700FD4622
:104AF00063C5C63A13070002118FB3D6C9003398B5
:104B0000E9003397E700558F33380001B369070197
:104B100033D6C700814493F7790081CF93F6F9002B
:104B200091476388F6009386490033B83601429670
:104B3000B6899317860063D6071C13871400930762
:104B4000F07F05886306F720B70780FFFD17F18F18
:104B50001398D70193D93900A60733683801B18378
:104B60001377F77F9396C7005207B1827E04D98EE0
:104B7000C18EF2406244D2444249B2494285B68570
:104B8000056182806356B00A638A0812B707800005
:104B90005D8F6387C42D9307800363C7B718FD47F4
:104BA00063D2B73C138805FE93070002B35907018F
:104BB000638AF50093070004B385B7403317B70045
:104BC000B3EEEE003338D0013368380195A2B367F5
:104BD000D7019385148099E393C61600630AD40421
:104BE000D1E19387140093F7E77F6399071EB367BA
:104BF000E3013368D701639204166382073C6316AE
:104C00000842131835009316D3011358380033E8BF
:104C100006019357330019A2B367D7016385071ABA
:104C20009387F5FF638B073A638CC523BE8589B5EF
:104C30006399051C9386140093F7E67FC1EFB36771
:104C4000E30163900436638D0744B367D70163942F
:104C500007460E051318D3010D813368A80093573A
:104C600033006DA8B385984063970420B367E301D0
:104C7000638D07309387F5FF638907401305F07F45
:104C80006383A520BE859307800363C2B72AFD47CF
:104C900063C8B73C930700028D8F3318F300335677
:104CA000BF00B317FF003368C800B339F0003353B7
:104CB000B3003368380133076740B5ACB367D70139
:104CC000638307109387F5FF638F071E6380C52FEB
:104CD000BE85D1B59307F07F638BF606FA9E33B697
:104CE000EE01B307E300B2971398F70193DE1E00BD
:104CF000B369D80113D61700B68493F77900E39F00
:104D000007E09317D60113D839003368F800A68559
:104D1000935736001307F07F6380E506B207B1832F
:104D200013F7F57F05883DBD3367D7013338E000C1
:104D3000B309E801B3B7E90133866700931786002A
:104D4000E3DD07FA85049307F07F639CF418058878
:104D50001307F07F8147014831B563910710630164
:104D6000083C131836009317D701135838003368DE
:104D7000F800368493573700B367F800E9DB014445
:104D80001307F07FB70708000148E9BB370680FF2B
:104D90007D167D8E93F77900998CE39107D895B7AE
:104DA0004E85EF10C02413078501FD47E3D2E7D2FB
:104DB000130685FFB397C90081492DB33368D70126
:104DC00033380001C5B1131835009317D3011358B8
:104DD00038003368F800935733002DBFB309DF4123
:104DE0003309E34033363F013309C9409317890043
:104DF00063CA072033E82901E31508CC8147014441
:104E000031BFB385984063810414B70680009307CF
:104E1000F07F3363D3006381F8209307800363CC72
:104E2000B722FD4763C9B72C930700028D8F331853
:104E3000F300B356BF00B317FF003368D800B3398F
:104E4000F0003353B300336838011A97B309D8011F
:104E5000B3B7D9013386E700C684CDB5E31108F2B4
:104E6000131835009317D301135838003368F8002E
:104E70009357330011B7370580009307F07F3363F2
:104E8000A300E392F8E00E061318D7010D823368F1
:104E9000C800935737003684C5B50517930600023E
:104EA00033D7E700630AD600930600043386C64072
:104EB0003396C700B3E9C90033383001B369E8005D
:104EC000014681441DBDB309DF01B307E30033BFD1
:104ED000E9013386E701931786008544E3DF07E0A5
:104EE0008944B70780FFFD17F18F13D7190013F816
:104EF0001900336807019399F701B3E9090113D643
:104F0000170011B9138805FE93070002B359070172
:104F1000638AF50093070004B385B7403317B700E1
:104F2000B3EEEE003338D00133683801A5BE3363E9
:104F3000E30133386000B3890E41B3B73E01330655
:104F4000F740C6843684ADB6B367E30163870718BC
:104F50009387F5FF638C071C9306F07F638ED50A59
:104F6000BE8565BD930700028D8FB3D9BE0033188F
:104F7000F700B39EFE00336838013357B700B339EA
:104F8000D001336838013A9365B31318360093178C
:104F9000D7011358380033E8070136849357370098
:104FA00095BBBDCB3367D701E31B07DC0E05131898
:104FB000D3010D813368A8009357330075BBE30F0D
:104FC00008E2131836009317D701135838003368D6
:104FD000F80036849357370091B3B309DF41B30724
:104FE000E340333F3F013386E7418544D1B4131892
:104FF00035009316D3011358380033E80601935750
:1050000033009DBBB389EE413306674033B93E019F
:1050100033092641368475B40E061318D7010D8264
:105020003368C8009357370081BBB309DF41B3072A
:10503000E34033363F013386C7409317860063D77A
:10504000070AB389EE41B3076740B3BE3E0133861A
:10505000D7413684C9B43363E30133386000FDB30C
:10506000138805FE93070002B3590301638AF50014
:1050700093070004B385B7403313B300336F6F0059
:105080003338E001336838017DB5B389EE41B307A9
:105090006740B3BE3E013386D7413684854409BCA0
:1050A000131836009317D701135838003368F800E7
:1050B00093573700A5B1B309DF01B307E30033BF4E
:1050C000E9013386E70193178600E3D807C2B707E3
:1050D00080FFFD177D8E85440DB10E061318D70194
:1050E0000D823368C800935737002DB133E8C900EB
:1050F000E30608D019B1138805FE93070002B359DF
:105100000301638AF50093070004B385B7403313A6
:10511000B300336F6F003338E001336838013DB3BB
:1051200001441307F07FB70708002DBCB309DF0166
:10513000B307E300B3BED9013386D70169BB93D768
:105140004501B70610001387F6FF93F7F77F1306A4
:10515000E03F6D8FFD81635CF6001306D041635A1A
:10516000F600370500801345F5FF2E958280014536
:105170008280130630431D8E7D48558F635DC800C5
:1051800093063041B387F640B357F7003305F0403C
:10519000E5F13E8582809387D7BEB317F70033557C
:1051A000C500C98FE5B7411106C622C426C20DCD80
:1051B0009357F541B3C4A7009D8C2A842685EF0040
:1051C00010639306E041898EA9477D8093F6F67FB0
:1051D00063CDA7022D47098FB3D7E4005505B20769
:1051E000B394A400B18329A001448146814781443E
:1051F000B207D206B1837E04D58FC18FB24022445C
:105200002685BE859244410182805515B397A4003E
:10521000B207B1838144E9BF4111370780007D1790
:1052200013D8750126C2935475013373A70093F404
:10523000F40FB376B7004AC01378F80F1359F5018D
:1052400006C622C4FD819A8726854A86131E33002E
:10525000939E3600B3880441630AB90E6350100D63
:10526000630408149307F00F638BF414B70700046A
:10527000B3EEFE00ED4763C1172993070002B38721
:105280001741B397FE00B3D81E01B337F000B3E760
:10529000F800B307FE4013975700635E0718370402
:1052A00000047D147D8C2285EF0070546D15B317BA
:1052B000A4006348951A058D130415001307000216
:1052C000018F3397E7003337E000B3D78700D98FDA
:1052D000814413F7770019C713F7F700914663036A
:1052E000D700910713975700635B071485041307D2
:1052F000F00F4A866383E4169A07A58313F5F40F2B
:10530000B2402244A6079314750113D59700458D2A
:105310007E0692440249518D410182806399080AB8
:10532000138714001377E70F6317071463900422A1
:10533000630D0E1EE3860EFCB307DE411397570084
:1053400063500722B387CE412E8961B7635C100B8F
:10535000630E08089307F00F6383F406B707000491
:10536000B3EEFE00ED4763C9171F93070002B38732
:105370001741B397FE00B3D81E01B337F000B3E76F
:10538000F800F297139757006357070A850413072D
:10539000F00F6384E40CB706007E13D71700FD16E8
:1053A000858B758FD98F35B7638D0E08FD18B307C0
:1053B000DE41E38208EE9307F00FE39DF4EA630D0C
:1053C000030801461305F00FB707400015BF330768
:1053D0009840EDE863020E147D17630807189307E1
:1053E000F00F6319F80E2E893683D1BF638B0E043C
:1053F000FD18B307DE01E38708F89307F00FE39386
:10540000F4F675BF63950808850413F7E40F63137A
:10541000071263170510630F0E14E3830EEEB30734
:10542000DE0113975700814463570700370700FCDC
:105430007D17F98F854413F77700E31F07E813D32F
:1054400037009307F00FE38CF4F693179300A583CE
:1054500013F5F40F4A866DB54A861305F00F8147A0
:1054600045B5370700FC7D17F98F13F77700898C56
:10547000E31407E6E9B73304DE419317540063C32E
:10548000070CE31204E201460145814795BD33074D
:105490009840ADC49307F00FE308F8F4B707000491
:1054A000336EFE00ED4763CCE70C93070002998F43
:1054B000B317FE003357EE00B337F000D98FF697DD
:1054C000C284C9B59307F00FE30FF8F0B7070004E3
:1054D000336EFE00ED4763C3E70893060002998E22
:1054E000B316DE00B357EE003337D000D98FB38741
:1054F000FE40C2842E8945B3854761BB630E0E060C
:105500007D17B307DE01C284E30E07E69307F00FB1
:10551000E31AF8F8368365B53683C2842E8915B749
:10552000E3040EECE38D0EE869BD638D0E022E865A
:10553000B687F9B39307F00FE381F4F2B307DE0106
:105540008583D5BD3384CE412E89B1BBE31C0EFCCF
:10555000E3890EE62E8949BD854725B5854741BFBC
:10556000E39B07EC0146814761BBB387CE41C28410
:105570002E8915B3B68769B33683C284D9B58547FA
:105580003DBF93567501B7078000FD1713D675010F
:1055900093F6F60F1308F00FB3F8A7001357F501B1
:1055A000ED8F1376F60FFD8163810603630C060110
:1055B0008DE211E2B1C3638E08026305B7040545AD
:1055C0001DE78280F5D779558280E39E08FE630946
:1055D000D60211E2EDD7E314B7FEE342D6FE63C76D
:1055E000C600E3EE17FD0145E3FDF8FC01E77D553C
:1055F0008280F5DD054582800145E39208FC8280CA
:10560000F9DBD1B78146E1BF93567501B70780003A
:10561000FD1713D6750193F6F60F1308F00FB3F8C4
:10562000A7001357F501ED8F1376F60FFD81638701
:1056300006036309060185EA11EA89EB0145639BCC
:10564000080082800945F5FFE5DA31A8638C08027D
:105650006300B704054575D77D5582800945639879
:1056600008026304D60211E2F5D7E315B7FEE3435F
:10567000D6FE63C7C600E3EF17FD0145E3F3F8FC70
:1056800019E3D9BFF1D905458280E5D382808280B4
:105690008146C5B7797122D4135475014ECE52CCD0
:1056A0009319950006D626D24AD056CA5AC8137402
:1056B000F40F93D99900135AF50169C49307F00FB9
:1056C0006308F40E9397390037070004B3E9E70045
:1056D000130414F88144014B13D77501939A950074
:1056E0001377F70F93DA9A0013D9F50145CF930793
:1056F000F00F630CF7028E0A130717F8B7070004C0
:10570000B3EAFA003A94014633452A01BD47AA8616
:105710009305140063E2971017170000130707059D
:105720008A04BA949C40BA9782871304F40F639852
:105730000A0C93E424000946C1BF01451307F00F8A
:10574000B7074000B2502254A6075E07A5837E0526
:10575000D98F92540259F249624AD24A424B5D8D26
:1057600045618280CA86D689328B89476301FB0AEC
:105770008D47E304FBFC854736856312FB1A01471E
:105780008147C9B7639E090413D77501939A9500A1
:105790001377F70F91440144054B93DA9A0013D91C
:1057A000F50131F7639D0A0093E414000546A9BF93
:1057B00063930902A1441304F00F094B31BF5685CE
:1057C000EF00F0029307B5FF098CB39AFA001304B7
:1057D000A4F8014615BFB1441304F00F0D4BEDBD05
:1057E0004E852EC6EF00B0009307B5FF1304A0F856
:1057F000B399F900098C8144014BB245F1BD93E4A2
:1058000034000D4611B78947D286E313FBF636857F
:105810001307F00F81473DB741639306F3FF13D69B
:10582000090193D80A01B3F7D900B3FADA00338833
:105830005703B389F80213570801B30A5603D699E0
:105840004E9733061603637357011A96C167FD1707
:10585000B376F7003378F800C206C29693996600D3
:1058600093570701B3393001E982B2979A07B3E63B
:10587000D900B3E9D7009397490063D9070013D73C
:10588000190093F71900B369F7002E841307F40782
:105890006350E00493F7790099C793F7F9009146B4
:1058A0006383D70091099397490063D90700B7072D
:1058B00000F8FD17B3F9F900130704089307E00F88
:1058C00063CBE70493976900A5831377F70F9DBD1A
:1058D0008547B386E74011C76D4601478147E343DB
:1058E000D6E61307E4093397E9003337E000B3D76E
:1058F000D900D98F13F7770019C713F7F70091462E
:105900006303D700910713975700634C07009A076A
:10591000A583014705BD1307F00F814725B52E84E8
:10592000B5B70547814739BD3707800041117D175D
:105930009356750113D87501B377A70093F6F60F48
:10594000935EF5013376B70026C24AC01378F80F8C
:1059500006C622C41303F00F3E8E3689F684139FC9
:105960003700FD8113153600B388064163026810C5
:1059700093C51500638CBE106354100D631008109E
:105980006304051EFD18B307AF4063860802930742
:10599000F00F6388F616ED4763C717291307000257
:1059A000330717413317E500B35715013337E000CC
:1059B000D98FB307FF40139757006351071A370475
:1059C00000047D147D8C22851D256D15B317A40060
:1059D000634E251B330525411304150013070002F0
:1059E000018F3397E7003337E000B3D78700D98FB3
:1059F000014913F7770019C713F7F70091466303BE
:105A0000D700910713975700635E07149306190098
:105A10001307F00F93FE14006386E6169A07A5831A
:105A200093F6F60FA607B240224413D59700DE0680
:105A30009397FE01558D924402495D8D410182800C
:105A40006392080A138716001377E70F631B071486
:105A50006394062263020F2071D5B307AF401397FA
:105A6000570063550722B307E5410149AE8451B79A
:105A7000E30005F0638ABE0AE35410FD9307F00FBC
:105A80006381F608B70700045D8D31B7635E1009C6
:105A9000630108089307F00F6385F606B707000453
:105AA0005D8DED4763C0171F1307000233071741D1
:105AB0003317E500B35715013337E000D98FFA9754
:105AC00013975700635C070805091307F00F630B72
:105AD000E90AB706007E13D71700FD16858B758F70
